{"contracts/EmiAutoPay.sol":{"EmiAutoPay":{"abi":[{"anonymous":false,"inputs":[{"indexed":true,"internalType":"address","name":"sender","type":"address"},{"indexed":false,"internalType":"uint256","name":"amount","type":"uint256"}],"name":"DepositMade","type":"event"},{"anonymous":false,"inputs":[{"indexed":true,"internalType":"address","name":"owner","type":"address"},{"indexed":false,"internalType":"uint256","name":"amount","type":"uint256"}],"name":"EmergencyWithdraw","type":"event"},{"anonymous":false,"inputs":[{"indexed":true,"internalType":"address","name":"receiver","type":"address"}],"name":"EmiCompleted","type":"event"},{"anonymous":false,"inputs":[{"indexed":true,"internalType":"address","name":"receiver","type":"address"},{"indexed":false,"internalType":"uint256","name":"amount","type":"uint256"},{"indexed":false,"internalType":"uint256","name":"nextPaymentTime","type":"uint256"}],"name":"EmiPaid","type":"event"},{"anonymous":false,"inputs":[{"indexed":true,"internalType":"address","name":"sender","type":"address"},{"indexed":true,"internalType":"address","name":"receiver","type":"address"},{"indexed":false,"internalType":"string","name":"senderNetwork","type":"string"},{"indexed":false,"internalType":"uint256","name":"emiAmount","type":"uint256"},{"indexed":false,"internalType":"uint256","name":"interval","type":"uint256"},{"indexed":false,"internalType":"uint256","name":"totalAmount","type":"uint256"}],"name":"EmiPlanCreated","type":"event"},{"anonymous":false,"inputs":[{"indexed":true,"internalType":"address","name":"previousOwner","type":"address"},{"indexed":true,"internalType":"address","name":"newOwner","type":"address"}],"name":"OwnershipTransferred","type":"event"},{"inputs":[{"internalType":"bytes","name":"","type":"bytes"}],"name":"checkUpkeep","outputs":[{"internalType":"bool","name":"upkeepNeeded","type":"bool"},{"internalType":"bytes","name":"","type":"bytes"}],"stateMutability":"view","type":"function"},{"inputs":[{"internalType":"address","name":"_sender","type":"address"},{"internalType":"string","name":"_senderNetwork","type":"string"},{"internalType":"uint256","name":"_emiAmount","type":"uint256"},{"internalType":"uint256","name":"_interval","type":"uint256"},{"internalType":"uint256","name":"_totalAmount","type":"uint256"}],"name":"createEmiPlan","outputs":[],"stateMutability":"nonpayable","type":"function"},{"inputs":[],"name":"depositFunds","outputs":[],"stateMutability":"payable","type":"function"},{"inputs":[{"internalType":"uint256","name":"amount","type":"uint256"}],"name":"emergencyWithdraw","outputs":[],"stateMutability":"nonpayable","type":"function"},{"inputs":[],"name":"getContractBalance","outputs":[{"internalType":"uint256","name":"","type":"uint256"}],"stateMutability":"view","type":"function"},{"inputs":[],"name":"owner","outputs":[{"internalType":"address","name":"","type":"address"}],"stateMutability":"view","type":"function"},{"inputs":[{"internalType":"bytes","name":"","type":"bytes"}],"name":"performUpkeep","outputs":[],"stateMutability":"nonpayable","type":"function"},{"inputs":[],"name":"plan","outputs":[{"internalType":"address","name":"sender","type":"address"},{"internalType":"string","name":"senderNetwork","type":"string"},{"internalType":"address","name":"receiver","type":"address"},{"internalType":"uint256","name":"emiAmount","type":"uint256"},{"internalType":"uint256","name":"interval","type":"uint256"},{"internalType":"uint256","name":"totalAmount","type":"uint256"},{"internalType":"uint256","name":"amountPaid","type":"uint256"},{"internalType":"uint256","name":"nextPaymentTime","type":"uint256"},{"internalType":"bool","name":"isActive","type":"bool"}],"stateMutability":"view","type":"function"},{"inputs":[],"name":"renounceOwnership","outputs":[],"stateMutability":"nonpayable","type":"function"},{"inputs":[{"internalType":"address","name":"newOwner","type":"address"}],"name":"transferOwnership","outputs":[],"stateMutability":"nonpayable","type":"function"}],"evm":{"bytecode":{"linkReferences":{},"object":"608060405234801561001057600080fd5b50600160008190555061003561002a61003a60201b60201c565b61004260201b60201c565b610108565b600033905090565b6000600160009054906101000a900473ffffffffffffffffffffffffffffffffffffffff16905081600160006101000a81548173ffffffffffffffffffffffffffffffffffffffff021916908373ffffffffffffffffffffffffffffffffffffffff1602179055508173ffffffffffffffffffffffffffffffffffffffff168173ffffffffffffffffffffffffffffffffffffffff167f8be0079c531659141344cd1fd0a4f28419497f9722a3daafe3b4186f6b6457e060405160405180910390a35050565b611b3f806101176000396000f3fe6080604052600436106100905760003560e01c80636f9fb98a116100595780636f9fb98a14610181578063715018a6146101ac5780638da5cb5b146101c3578063e2c41dbc146101ee578063f2fde38b146101f857610090565b8062a1dd3e146100955780634585e33b146100be5780635312ea8e146100e757806353e06571146101105780636e04ff0d14610143575b600080fd5b3480156100a157600080fd5b506100bc60048036038101906100b79190610f50565b610221565b005b3480156100ca57600080fd5b506100e560048036038101906100e09190611047565b610542565b005b3480156100f357600080fd5b5061010e60048036038101906101099190611094565b610756565b005b34801561011c57600080fd5b50610125610847565b60405161013a99989796959493929190611179565b60405180910390f35b34801561014f57600080fd5b5061016a60048036038101906101659190611047565b610958565b604051610178929190611262565b60405180910390f35b34801561018d57600080fd5b506101966109af565b6040516101a39190611292565b60405180910390f35b3480156101b857600080fd5b506101c16109b7565b005b3480156101cf57600080fd5b506101d86109cb565b6040516101e591906112ad565b60405180910390f35b6101f66109f5565b005b34801561020457600080fd5b5061021f600480360381019061021a91906112c8565b610b3a565b005b600073ffffffffffffffffffffffffffffffffffffffff168573ffffffffffffffffffffffffffffffffffffffff1603610290576040517f08c379a000000000000000000000000000000000000000000000000000000000815260040161028790611341565b60405180910390fd5b600083116102d3576040517f08c379a00000000000000000000000000000000000000000000000000000000081526004016102ca906113ad565b60405180910390fd5b603c821015610317576040517f08c379a000000000000000000000000000000000000000000000000000000000815260040161030e90611419565b60405180910390fd5b828111610359576040517f08c379a000000000000000000000000000000000000000000000000000000000815260040161035090611485565b60405180910390fd5b6040518061012001604052808673ffffffffffffffffffffffffffffffffffffffff1681526020018581526020013373ffffffffffffffffffffffffffffffffffffffff1681526020018481526020018381526020018281526020016000815260200183426103c891906114d4565b815260200160011515815250600260008201518160000160006101000a81548173ffffffffffffffffffffffffffffffffffffffff021916908373ffffffffffffffffffffffffffffffffffffffff16021790555060208201518160010190816104329190611714565b5060408201518160020160006101000a81548173ffffffffffffffffffffffffffffffffffffffff021916908373ffffffffffffffffffffffffffffffffffffffff160217905550606082015181600301556080820151816004015560a0820151816005015560c0820151816006015560e082015181600701556101008201518160080160006101000a81548160ff0219169083151502179055509050503373ffffffffffffffffffffffffffffffffffffffff168573ffffffffffffffffffffffffffffffffffffffff167f4afb367e4704341e193fbfc7471fba9baff5a8ff3be93fd45b8eed4323021a5b8686868660405161053394939291906117e6565b60405180910390a35050505050565b61054a610bbd565b600260080160009054906101000a900460ff16801561056e57506002600301544710155b801561057f57506002600701544210155b15610749576002800160009054906101000a900473ffffffffffffffffffffffffffffffffffffffff1673ffffffffffffffffffffffffffffffffffffffff166108fc6002600301549081150290604051600060405180830381858888f193505050501580156105f3573d6000803e3d6000fd5b506002600301546002600601600082825461060e91906114d4565b92505081905550600260050154600260060154106106b0576000600260080160006101000a81548160ff0219169083151502179055506002800160009054906101000a900473ffffffffffffffffffffffffffffffffffffffff1673ffffffffffffffffffffffffffffffffffffffff167f209d75a7c13fb985ae4710a4c74a4d6886d9de5c7dc6e3a98959de78fb2dc30e60405160405180910390a261074a565b600260040154426106c191906114d4565b6002600701819055506002800160009054906101000a900473ffffffffffffffffffffffffffffffffffffffff1673ffffffffffffffffffffffffffffffffffffffff167faf7a1863671a8f6c36d7e2a2c5b80375b21bffe316b06d9a7cbd36f0bb004f5b600260030154600260070154604051610740929190611832565b60405180910390a25b5b610752610c0c565b5050565b61075e610c16565b478111156107a1576040517f08c379a0000000000000000000000000000000000000000000000000000000008152600401610798906118a7565b60405180910390fd5b6107a96109cb565b73ffffffffffffffffffffffffffffffffffffffff166108fc829081150290604051600060405180830381858888f193505050501580156107ee573d6000803e3d6000fd5b506107f76109cb565b73ffffffffffffffffffffffffffffffffffffffff167f5fafa99d0643513820be26656b45130b01e1c03062e1266bf36f88cbd3bd96958260405161083c9190611292565b60405180910390a250565b60028060000160009054906101000a900473ffffffffffffffffffffffffffffffffffffffff169080600101805461087e90611537565b80601f01602080910402602001604051908101604052809291908181526020018280546108aa90611537565b80156108f75780601f106108cc576101008083540402835291602001916108f7565b820191906000526020600020905b8154815290600101906020018083116108da57829003601f168201915b5050505050908060020160009054906101000a900473ffffffffffffffffffffffffffffffffffffffff16908060030154908060040154908060050154908060060154908060070154908060080160009054906101000a900460ff16905089565b60006060600260080160009054906101000a900460ff16801561098057506002600301544710155b801561099157506002600701544210155b91508160405180602001604052806000815250915091509250929050565b600047905090565b6109bf610c16565b6109c96000610c94565b565b6000600160009054906101000a900473ffffffffffffffffffffffffffffffffffffffff16905090565b6109fd610bbd565b600260080160009054906101000a900460ff16610a4f576040517f08c379a0000000000000000000000000000000000000000000000000000000008152600401610a4690611913565b60405180910390fd5b600260000160009054906101000a900473ffffffffffffffffffffffffffffffffffffffff1673ffffffffffffffffffffffffffffffffffffffff163373ffffffffffffffffffffffffffffffffffffffff1614610ae2576040517f08c379a0000000000000000000000000000000000000000000000000000000008152600401610ad99061197f565b60405180910390fd5b3373ffffffffffffffffffffffffffffffffffffffff167fd15c9547ea5c06670c0010ce19bc32d54682a4b3801ece7f3ab0c3f17106b4bb34604051610b289190611292565b60405180910390a2610b38610c0c565b565b610b42610c16565b600073ffffffffffffffffffffffffffffffffffffffff168173ffffffffffffffffffffffffffffffffffffffff1603610bb1576040517f08c379a0000000000000000000000000000000000000000000000000000000008152600401610ba890611a11565b60405180910390fd5b610bba81610c94565b50565b600260005403610c02576040517f08c379a0000000000000000000000000000000000000000000000000000000008152600401610bf990611a7d565b60405180910390fd5b6002600081905550565b6001600081905550565b610c1e610d5a565b73ffffffffffffffffffffffffffffffffffffffff16610c3c6109cb565b73ffffffffffffffffffffffffffffffffffffffff1614610c92576040517f08c379a0000000000000000000000000000000000000000000000000000000008152600401610c8990611ae9565b60405180910390fd5b565b6000600160009054906101000a900473ffffffffffffffffffffffffffffffffffffffff16905081600160006101000a81548173ffffffffffffffffffffffffffffffffffffffff021916908373ffffffffffffffffffffffffffffffffffffffff1602179055508173ffffffffffffffffffffffffffffffffffffffff168173ffffffffffffffffffffffffffffffffffffffff167f8be0079c531659141344cd1fd0a4f28419497f9722a3daafe3b4186f6b6457e060405160405180910390a35050565b600033905090565b6000604051905090565b600080fd5b600080fd5b600073ffffffffffffffffffffffffffffffffffffffff82169050919050565b6000610da182610d76565b9050919050565b610db181610d96565b8114610dbc57600080fd5b50565b600081359050610dce81610da8565b92915050565b600080fd5b600080fd5b6000601f19601f8301169050919050565b7f4e487b7100000000000000000000000000000000000000000000000000000000600052604160045260246000fd5b610e2782610dde565b810181811067ffffffffffffffff82111715610e4657610e45610def565b5b80604052505050565b6000610e59610d62565b9050610e658282610e1e565b919050565b600067ffffffffffffffff821115610e8557610e84610def565b5b610e8e82610dde565b9050602081019050919050565b82818337600083830152505050565b6000610ebd610eb884610e6a565b610e4f565b905082815260208101848484011115610ed957610ed8610dd9565b5b610ee4848285610e9b565b509392505050565b600082601f830112610f0157610f00610dd4565b5b8135610f11848260208601610eaa565b91505092915050565b6000819050919050565b610f2d81610f1a565b8114610f3857600080fd5b50565b600081359050610f4a81610f24565b92915050565b600080600080600060a08688031215610f6c57610f6b610d6c565b5b6000610f7a88828901610dbf565b955050602086013567ffffffffffffffff811115610f9b57610f9a610d71565b5b610fa788828901610eec565b9450506040610fb888828901610f3b565b9350506060610fc988828901610f3b565b9250506080610fda88828901610f3b565b9150509295509295909350565b600080fd5b600080fd5b60008083601f84011261100757611006610dd4565b5b8235905067ffffffffffffffff81111561102457611023610fe7565b5b6020830191508360018202830111156110405761103f610fec565b5b9250929050565b6000806020838503121561105e5761105d610d6c565b5b600083013567ffffffffffffffff81111561107c5761107b610d71565b5b61108885828601610ff1565b92509250509250929050565b6000602082840312156110aa576110a9610d6c565b5b60006110b884828501610f3b565b91505092915050565b6110ca81610d96565b82525050565b600081519050919050565b600082825260208201905092915050565b60005b8381101561110a5780820151818401526020810190506110ef565b60008484015250505050565b6000611121826110d0565b61112b81856110db565b935061113b8185602086016110ec565b61114481610dde565b840191505092915050565b61115881610f1a565b82525050565b60008115159050919050565b6111738161115e565b82525050565b60006101208201905061118f600083018c6110c1565b81810360208301526111a1818b611116565b90506111b0604083018a6110c1565b6111bd606083018961114f565b6111ca608083018861114f565b6111d760a083018761114f565b6111e460c083018661114f565b6111f160e083018561114f565b6111ff61010083018461116a565b9a9950505050505050505050565b600081519050919050565b600082825260208201905092915050565b60006112348261120d565b61123e8185611218565b935061124e8185602086016110ec565b61125781610dde565b840191505092915050565b6000604082019050611277600083018561116a565b81810360208301526112898184611229565b90509392505050565b60006020820190506112a7600083018461114f565b92915050565b60006020820190506112c260008301846110c1565b92915050565b6000602082840312156112de576112dd610d6c565b5b60006112ec84828501610dbf565b91505092915050565b7f496e76616c69642073656e646572000000000000000000000000000000000000600082015250565b600061132b600e836110db565b9150611336826112f5565b602082019050919050565b6000602082019050818103600083015261135a8161131e565b9050919050565b7f454d4920616d6f756e74206d757374206265203e203000000000000000000000600082015250565b60006113976016836110db565b91506113a282611361565b602082019050919050565b600060208201905081810360008301526113c68161138a565b9050919050565b7f496e74657276616c206d757374206265203e3d203630207365636f6e64730000600082015250565b6000611403601e836110db565b915061140e826113cd565b602082019050919050565b60006020820190508181036000830152611432816113f6565b9050919050565b7f546f74616c206d757374206265203e20454d4920616d6f756e74000000000000600082015250565b600061146f601a836110db565b915061147a82611439565b602082019050919050565b6000602082019050818103600083015261149e81611462565b9050919050565b7f4e487b7100000000000000000000000000000000000000000000000000000000600052601160045260246000fd5b60006114df82610f1a565b91506114ea83610f1a565b9250828201905080821115611502576115016114a5565b5b92915050565b7f4e487b7100000000000000000000000000000000000000000000000000000000600052602260045260246000fd5b6000600282049050600182168061154f57607f821691505b60208210810361156257611561611508565b5b50919050565b60008190508160005260206000209050919050565b60006020601f8301049050919050565b600082821b905092915050565b6000600883026115ca7fffffffffffffffffffffffffffffffffffffffffffffffffffffffffffffffff8261158d565b6115d4868361158d565b95508019841693508086168417925050509392505050565b6000819050919050565b600061161161160c61160784610f1a565b6115ec565b610f1a565b9050919050565b6000819050919050565b61162b836115f6565b61163f61163782611618565b84845461159a565b825550505050565b600090565b611654611647565b61165f818484611622565b505050565b5b818110156116835761167860008261164c565b600181019050611665565b5050565b601f8211156116c85761169981611568565b6116a28461157d565b810160208510156116b1578190505b6116c56116bd8561157d565b830182611664565b50505b505050565b600082821c905092915050565b60006116eb600019846008026116cd565b1980831691505092915050565b600061170483836116da565b9150826002028217905092915050565b61171d826110d0565b67ffffffffffffffff81111561173657611735610def565b5b6117408254611537565b61174b828285611687565b600060209050601f83116001811461177e576000841561176c578287015190505b61177685826116f8565b8655506117de565b601f19841661178c86611568565b60005b828110156117b45784890151825560018201915060208501945060208101905061178f565b868310156117d157848901516117cd601f8916826116da565b8355505b6001600288020188555050505b505050505050565b600060808201905081810360008301526118008187611116565b905061180f602083018661114f565b61181c604083018561114f565b611829606083018461114f565b95945050505050565b6000604082019050611847600083018561114f565b611854602083018461114f565b9392505050565b7f496e73756666696369656e742062616c616e6365000000000000000000000000600082015250565b60006118916014836110db565b915061189c8261185b565b602082019050919050565b600060208201905081810360008301526118c081611884565b9050919050565b7f506c616e206e6f74206163746976650000000000000000000000000000000000600082015250565b60006118fd600f836110db565b9150611908826118c7565b602082019050919050565b6000602082019050818103600083015261192c816118f0565b9050919050565b7f4f6e6c792073656e6465722063616e206465706f736974000000000000000000600082015250565b60006119696017836110db565b915061197482611933565b602082019050919050565b600060208201905081810360008301526119988161195c565b9050919050565b7f4f776e61626c653a206e6577206f776e657220697320746865207a65726f206160008201527f6464726573730000000000000000000000000000000000000000000000000000602082015250565b60006119fb6026836110db565b9150611a068261199f565b604082019050919050565b60006020820190508181036000830152611a2a816119ee565b9050919050565b7f5265656e7472616e637947756172643a207265656e7472616e742063616c6c00600082015250565b6000611a67601f836110db565b9150611a7282611a31565b602082019050919050565b60006020820190508181036000830152611a9681611a5a565b9050919050565b7f4f776e61626c653a2063616c6c6572206973206e6f7420746865206f776e6572600082015250565b6000611ad36020836110db565b9150611ade82611a9d565b602082019050919050565b60006020820190508181036000830152611b0281611ac6565b905091905056fea2646970667358221220b737f41f90aaccc1a594b43a8a207ce705b8b70a3c5331439bb7c3728692adad64736f6c63430008140033","opcodes":"PUSH1 0x80 PUSH1 0x40 MSTORE CALLVALUE DUP1 ISZERO PUSH2 0x10 JUMPI PUSH1 0x0 DUP1 REVERT JUMPDEST POP PUSH1 0x1 PUSH1 0x0 DUP2 SWAP1 SSTORE POP PUSH2 0x35 PUSH2 0x2A PUSH2 0x3A PUSH1 0x20 SHL PUSH1 0x20 SHR JUMP JUMPDEST PUSH2 0x42 PUSH1 0x20 SHL PUSH1 0x20 SHR JUMP JUMPDEST PUSH2 0x108 JUMP JUMPDEST PUSH1 0x0 CALLER SWAP1 POP SWAP1 JUMP JUMPDEST PUSH1 0x0 PUSH1 0x1 PUSH1 0x0 SWAP1 SLOAD SWAP1 PUSH2 0x100 EXP SWAP1 DIV PUSH20 0xFFFFFFFFFFFFFFFFFFFFFFFFFFFFFFFFFFFFFFFF AND SWAP1 POP DUP2 PUSH1 0x1 PUSH1 0x0 PUSH2 0x100 EXP DUP2 SLOAD DUP2 PUSH20 0xFFFFFFFFFFFFFFFFFFFFFFFFFFFFFFFFFFFFFFFF MUL NOT AND SWAP1 DUP4 PUSH20 0xFFFFFFFFFFFFFFFFFFFFFFFFFFFFFFFFFFFFFFFF AND MUL OR SWAP1 SSTORE POP DUP2 PUSH20 0xFFFFFFFFFFFFFFFFFFFFFFFFFFFFFFFFFFFFFFFF AND DUP2 PUSH20 0xFFFFFFFFFFFFFFFFFFFFFFFFFFFFFFFFFFFFFFFF AND PUSH32 0x8BE0079C531659141344CD1FD0A4F28419497F9722A3DAAFE3B4186F6B6457E0 PUSH1 0x40 MLOAD PUSH1 0x40 MLOAD DUP1 SWAP2 SUB SWAP1 LOG3 POP POP JUMP JUMPDEST PUSH2 0x1B3F DUP1 PUSH2 0x117 PUSH1 0x0 CODECOPY PUSH1 0x0 RETURN INVALID PUSH1 0x80 PUSH1 0x40 MSTORE PUSH1 0x4 CALLDATASIZE LT PUSH2 0x90 JUMPI PUSH1 0x0 CALLDATALOAD PUSH1 0xE0 SHR DUP1 PUSH4 0x6F9FB98A GT PUSH2 0x59 JUMPI DUP1 PUSH4 0x6F9FB98A EQ PUSH2 0x181 JUMPI DUP1 PUSH4 0x715018A6 EQ PUSH2 0x1AC JUMPI DUP1 PUSH4 0x8DA5CB5B EQ PUSH2 0x1C3 JUMPI DUP1 PUSH4 0xE2C41DBC EQ PUSH2 0x1EE JUMPI DUP1 PUSH4 0xF2FDE38B EQ PUSH2 0x1F8 JUMPI PUSH2 0x90 JUMP JUMPDEST DUP1 PUSH3 0xA1DD3E EQ PUSH2 0x95 JUMPI DUP1 PUSH4 0x4585E33B EQ PUSH2 0xBE JUMPI DUP1 PUSH4 0x5312EA8E EQ PUSH2 0xE7 JUMPI DUP1 PUSH4 0x53E06571 EQ PUSH2 0x110 JUMPI DUP1 PUSH4 0x6E04FF0D EQ PUSH2 0x143 JUMPI JUMPDEST PUSH1 0x0 DUP1 REVERT JUMPDEST CALLVALUE DUP1 ISZERO PUSH2 0xA1 JUMPI PUSH1 0x0 DUP1 REVERT JUMPDEST POP PUSH2 0xBC PUSH1 0x4 DUP1 CALLDATASIZE SUB DUP2 ADD SWAP1 PUSH2 0xB7 SWAP2 SWAP1 PUSH2 0xF50 JUMP JUMPDEST PUSH2 0x221 JUMP JUMPDEST STOP JUMPDEST CALLVALUE DUP1 ISZERO PUSH2 0xCA JUMPI PUSH1 0x0 DUP1 REVERT JUMPDEST POP PUSH2 0xE5 PUSH1 0x4 DUP1 CALLDATASIZE SUB DUP2 ADD SWAP1 PUSH2 0xE0 SWAP2 SWAP1 PUSH2 0x1047 JUMP JUMPDEST PUSH2 0x542 JUMP JUMPDEST STOP JUMPDEST CALLVALUE DUP1 ISZERO PUSH2 0xF3 JUMPI PUSH1 0x0 DUP1 REVERT JUMPDEST POP PUSH2 0x10E PUSH1 0x4 DUP1 CALLDATASIZE SUB DUP2 ADD SWAP1 PUSH2 0x109 SWAP2 SWAP1 PUSH2 0x1094 JUMP JUMPDEST PUSH2 0x756 JUMP JUMPDEST STOP JUMPDEST CALLVALUE DUP1 ISZERO PUSH2 0x11C JUMPI PUSH1 0x0 DUP1 REVERT JUMPDEST POP PUSH2 0x125 PUSH2 0x847 JUMP JUMPDEST PUSH1 0x40 MLOAD PUSH2 0x13A SWAP10 SWAP9 SWAP8 SWAP7 SWAP6 SWAP5 SWAP4 SWAP3 SWAP2 SWAP1 PUSH2 0x1179 JUMP JUMPDEST PUSH1 0x40 MLOAD DUP1 SWAP2 SUB SWAP1 RETURN JUMPDEST CALLVALUE DUP1 ISZERO PUSH2 0x14F JUMPI PUSH1 0x0 DUP1 REVERT JUMPDEST POP PUSH2 0x16A PUSH1 0x4 DUP1 CALLDATASIZE SUB DUP2 ADD SWAP1 PUSH2 0x165 SWAP2 SWAP1 PUSH2 0x1047 JUMP JUMPDEST PUSH2 0x958 JUMP JUMPDEST PUSH1 0x40 MLOAD PUSH2 0x178 SWAP3 SWAP2 SWAP1 PUSH2 0x1262 JUMP JUMPDEST PUSH1 0x40 MLOAD DUP1 SWAP2 SUB SWAP1 RETURN JUMPDEST CALLVALUE DUP1 ISZERO PUSH2 0x18D JUMPI PUSH1 0x0 DUP1 REVERT JUMPDEST POP PUSH2 0x196 PUSH2 0x9AF JUMP JUMPDEST PUSH1 0x40 MLOAD PUSH2 0x1A3 SWAP2 SWAP1 PUSH2 0x1292 JUMP JUMPDEST PUSH1 0x40 MLOAD DUP1 SWAP2 SUB SWAP1 RETURN JUMPDEST CALLVALUE DUP1 ISZERO PUSH2 0x1B8 JUMPI PUSH1 0x0 DUP1 REVERT JUMPDEST POP PUSH2 0x1C1 PUSH2 0x9B7 JUMP JUMPDEST STOP JUMPDEST CALLVALUE DUP1 ISZERO PUSH2 0x1CF JUMPI PUSH1 0x0 DUP1 REVERT JUMPDEST POP PUSH2 0x1D8 PUSH2 0x9CB JUMP JUMPDEST PUSH1 0x40 MLOAD PUSH2 0x1E5 SWAP2 SWAP1 PUSH2 0x12AD JUMP JUMPDEST PUSH1 0x40 MLOAD DUP1 SWAP2 SUB SWAP1 RETURN JUMPDEST PUSH2 0x1F6 PUSH2 0x9F5 JUMP JUMPDEST STOP JUMPDEST CALLVALUE DUP1 ISZERO PUSH2 0x204 JUMPI PUSH1 0x0 DUP1 REVERT JUMPDEST POP PUSH2 0x21F PUSH1 0x4 DUP1 CALLDATASIZE SUB DUP2 ADD SWAP1 PUSH2 0x21A SWAP2 SWAP1 PUSH2 0x12C8 JUMP JUMPDEST PUSH2 0xB3A JUMP JUMPDEST STOP JUMPDEST PUSH1 0x0 PUSH20 0xFFFFFFFFFFFFFFFFFFFFFFFFFFFFFFFFFFFFFFFF AND DUP6 PUSH20 0xFFFFFFFFFFFFFFFFFFFFFFFFFFFFFFFFFFFFFFFF AND SUB PUSH2 0x290 JUMPI PUSH1 0x40 MLOAD PUSH32 0x8C379A000000000000000000000000000000000000000000000000000000000 DUP2 MSTORE PUSH1 0x4 ADD PUSH2 0x287 SWAP1 PUSH2 0x1341 JUMP JUMPDEST PUSH1 0x40 MLOAD DUP1 SWAP2 SUB SWAP1 REVERT JUMPDEST PUSH1 0x0 DUP4 GT PUSH2 0x2D3 JUMPI PUSH1 0x40 MLOAD PUSH32 0x8C379A000000000000000000000000000000000000000000000000000000000 DUP2 MSTORE PUSH1 0x4 ADD PUSH2 0x2CA SWAP1 PUSH2 0x13AD JUMP JUMPDEST PUSH1 0x40 MLOAD DUP1 SWAP2 SUB SWAP1 REVERT JUMPDEST PUSH1 0x3C DUP3 LT ISZERO PUSH2 0x317 JUMPI PUSH1 0x40 MLOAD PUSH32 0x8C379A000000000000000000000000000000000000000000000000000000000 DUP2 MSTORE PUSH1 0x4 ADD PUSH2 0x30E SWAP1 PUSH2 0x1419 JUMP JUMPDEST PUSH1 0x40 MLOAD DUP1 SWAP2 SUB SWAP1 REVERT JUMPDEST DUP3 DUP2 GT PUSH2 0x359 JUMPI PUSH1 0x40 MLOAD PUSH32 0x8C379A000000000000000000000000000000000000000000000000000000000 DUP2 MSTORE PUSH1 0x4 ADD PUSH2 0x350 SWAP1 PUSH2 0x1485 JUMP JUMPDEST PUSH1 0x40 MLOAD DUP1 SWAP2 SUB SWAP1 REVERT JUMPDEST PUSH1 0x40 MLOAD DUP1 PUSH2 0x120 ADD PUSH1 0x40 MSTORE DUP1 DUP7 PUSH20 0xFFFFFFFFFFFFFFFFFFFFFFFFFFFFFFFFFFFFFFFF AND DUP2 MSTORE PUSH1 0x20 ADD DUP6 DUP2 MSTORE PUSH1 0x20 ADD CALLER PUSH20 0xFFFFFFFFFFFFFFFFFFFFFFFFFFFFFFFFFFFFFFFF AND DUP2 MSTORE PUSH1 0x20 ADD DUP5 DUP2 MSTORE PUSH1 0x20 ADD DUP4 DUP2 MSTORE PUSH1 0x20 ADD DUP3 DUP2 MSTORE PUSH1 0x20 ADD PUSH1 0x0 DUP2 MSTORE PUSH1 0x20 ADD DUP4 TIMESTAMP PUSH2 0x3C8 SWAP2 SWAP1 PUSH2 0x14D4 JUMP JUMPDEST DUP2 MSTORE PUSH1 0x20 ADD PUSH1 0x1 ISZERO ISZERO DUP2 MSTORE POP PUSH1 0x2 PUSH1 0x0 DUP3 ADD MLOAD DUP2 PUSH1 0x0 ADD PUSH1 0x0 PUSH2 0x100 EXP DUP2 SLOAD DUP2 PUSH20 0xFFFFFFFFFFFFFFFFFFFFFFFFFFFFFFFFFFFFFFFF MUL NOT AND SWAP1 DUP4 PUSH20 0xFFFFFFFFFFFFFFFFFFFFFFFFFFFFFFFFFFFFFFFF AND MUL OR SWAP1 SSTORE POP PUSH1 0x20 DUP3 ADD MLOAD DUP2 PUSH1 0x1 ADD SWAP1 DUP2 PUSH2 0x432 SWAP2 SWAP1 PUSH2 0x1714 JUMP JUMPDEST POP PUSH1 0x40 DUP3 ADD MLOAD DUP2 PUSH1 0x2 ADD PUSH1 0x0 PUSH2 0x100 EXP DUP2 SLOAD DUP2 PUSH20 0xFFFFFFFFFFFFFFFFFFFFFFFFFFFFFFFFFFFFFFFF MUL NOT AND SWAP1 DUP4 PUSH20 0xFFFFFFFFFFFFFFFFFFFFFFFFFFFFFFFFFFFFFFFF AND MUL OR SWAP1 SSTORE POP PUSH1 0x60 DUP3 ADD MLOAD DUP2 PUSH1 0x3 ADD SSTORE PUSH1 0x80 DUP3 ADD MLOAD DUP2 PUSH1 0x4 ADD SSTORE PUSH1 0xA0 DUP3 ADD MLOAD DUP2 PUSH1 0x5 ADD SSTORE PUSH1 0xC0 DUP3 ADD MLOAD DUP2 PUSH1 0x6 ADD SSTORE PUSH1 0xE0 DUP3 ADD MLOAD DUP2 PUSH1 0x7 ADD SSTORE PUSH2 0x100 DUP3 ADD MLOAD DUP2 PUSH1 0x8 ADD PUSH1 0x0 PUSH2 0x100 EXP DUP2 SLOAD DUP2 PUSH1 0xFF MUL NOT AND SWAP1 DUP4 ISZERO ISZERO MUL OR SWAP1 SSTORE POP SWAP1 POP POP CALLER PUSH20 0xFFFFFFFFFFFFFFFFFFFFFFFFFFFFFFFFFFFFFFFF AND DUP6 PUSH20 0xFFFFFFFFFFFFFFFFFFFFFFFFFFFFFFFFFFFFFFFF AND PUSH32 0x4AFB367E4704341E193FBFC7471FBA9BAFF5A8FF3BE93FD45B8EED4323021A5B DUP7 DUP7 DUP7 DUP7 PUSH1 0x40 MLOAD PUSH2 0x533 SWAP5 SWAP4 SWAP3 SWAP2 SWAP1 PUSH2 0x17E6 JUMP JUMPDEST PUSH1 0x40 MLOAD DUP1 SWAP2 SUB SWAP1 LOG3 POP POP POP POP POP JUMP JUMPDEST PUSH2 0x54A PUSH2 0xBBD JUMP JUMPDEST PUSH1 0x2 PUSH1 0x8 ADD PUSH1 0x0 SWAP1 SLOAD SWAP1 PUSH2 0x100 EXP SWAP1 DIV PUSH1 0xFF AND DUP1 ISZERO PUSH2 0x56E JUMPI POP PUSH1 0x2 PUSH1 0x3 ADD SLOAD SELFBALANCE LT ISZERO JUMPDEST DUP1 ISZERO PUSH2 0x57F JUMPI POP PUSH1 0x2 PUSH1 0x7 ADD SLOAD TIMESTAMP LT ISZERO JUMPDEST ISZERO PUSH2 0x749 JUMPI PUSH1 0x2 DUP1 ADD PUSH1 0x0 SWAP1 SLOAD SWAP1 PUSH2 0x100 EXP SWAP1 DIV PUSH20 0xFFFFFFFFFFFFFFFFFFFFFFFFFFFFFFFFFFFFFFFF AND PUSH20 0xFFFFFFFFFFFFFFFFFFFFFFFFFFFFFFFFFFFFFFFF AND PUSH2 0x8FC PUSH1 0x2 PUSH1 0x3 ADD SLOAD SWAP1 DUP2 ISZERO MUL SWAP1 PUSH1 0x40 MLOAD PUSH1 0x0 PUSH1 0x40 MLOAD DUP1 DUP4 SUB DUP2 DUP6 DUP9 DUP9 CALL SWAP4 POP POP POP POP ISZERO DUP1 ISZERO PUSH2 0x5F3 JUMPI RETURNDATASIZE PUSH1 0x0 DUP1 RETURNDATACOPY RETURNDATASIZE PUSH1 0x0 REVERT JUMPDEST POP PUSH1 0x2 PUSH1 0x3 ADD SLOAD PUSH1 0x2 PUSH1 0x6 ADD PUSH1 0x0 DUP3 DUP3 SLOAD PUSH2 0x60E SWAP2 SWAP1 PUSH2 0x14D4 JUMP JUMPDEST SWAP3 POP POP DUP2 SWAP1 SSTORE POP PUSH1 0x2 PUSH1 0x5 ADD SLOAD PUSH1 0x2 PUSH1 0x6 ADD SLOAD LT PUSH2 0x6B0 JUMPI PUSH1 0x0 PUSH1 0x2 PUSH1 0x8 ADD PUSH1 0x0 PUSH2 0x100 EXP DUP2 SLOAD DUP2 PUSH1 0xFF MUL NOT AND SWAP1 DUP4 ISZERO ISZERO MUL OR SWAP1 SSTORE POP PUSH1 0x2 DUP1 ADD PUSH1 0x0 SWAP1 SLOAD SWAP1 PUSH2 0x100 EXP SWAP1 DIV PUSH20 0xFFFFFFFFFFFFFFFFFFFFFFFFFFFFFFFFFFFFFFFF AND PUSH20 0xFFFFFFFFFFFFFFFFFFFFFFFFFFFFFFFFFFFFFFFF AND PUSH32 0x209D75A7C13FB985AE4710A4C74A4D6886D9DE5C7DC6E3A98959DE78FB2DC30E PUSH1 0x40 MLOAD PUSH1 0x40 MLOAD DUP1 SWAP2 SUB SWAP1 LOG2 PUSH2 0x74A JUMP JUMPDEST PUSH1 0x2 PUSH1 0x4 ADD SLOAD TIMESTAMP PUSH2 0x6C1 SWAP2 SWAP1 PUSH2 0x14D4 JUMP JUMPDEST PUSH1 0x2 PUSH1 0x7 ADD DUP2 SWAP1 SSTORE POP PUSH1 0x2 DUP1 ADD PUSH1 0x0 SWAP1 SLOAD SWAP1 PUSH2 0x100 EXP SWAP1 DIV PUSH20 0xFFFFFFFFFFFFFFFFFFFFFFFFFFFFFFFFFFFFFFFF AND PUSH20 0xFFFFFFFFFFFFFFFFFFFFFFFFFFFFFFFFFFFFFFFF AND PUSH32 0xAF7A1863671A8F6C36D7E2A2C5B80375B21BFFE316B06D9A7CBD36F0BB004F5B PUSH1 0x2 PUSH1 0x3 ADD SLOAD PUSH1 0x2 PUSH1 0x7 ADD SLOAD PUSH1 0x40 MLOAD PUSH2 0x740 SWAP3 SWAP2 SWAP1 PUSH2 0x1832 JUMP JUMPDEST PUSH1 0x40 MLOAD DUP1 SWAP2 SUB SWAP1 LOG2 JUMPDEST JUMPDEST PUSH2 0x752 PUSH2 0xC0C JUMP JUMPDEST POP POP JUMP JUMPDEST PUSH2 0x75E PUSH2 0xC16 JUMP JUMPDEST SELFBALANCE DUP2 GT ISZERO PUSH2 0x7A1 JUMPI PUSH1 0x40 MLOAD PUSH32 0x8C379A000000000000000000000000000000000000000000000000000000000 DUP2 MSTORE PUSH1 0x4 ADD PUSH2 0x798 SWAP1 PUSH2 0x18A7 JUMP JUMPDEST PUSH1 0x40 MLOAD DUP1 SWAP2 SUB SWAP1 REVERT JUMPDEST PUSH2 0x7A9 PUSH2 0x9CB JUMP JUMPDEST PUSH20 0xFFFFFFFFFFFFFFFFFFFFFFFFFFFFFFFFFFFFFFFF AND PUSH2 0x8FC DUP3 SWAP1 DUP2 ISZERO MUL SWAP1 PUSH1 0x40 MLOAD PUSH1 0x0 PUSH1 0x40 MLOAD DUP1 DUP4 SUB DUP2 DUP6 DUP9 DUP9 CALL SWAP4 POP POP POP POP ISZERO DUP1 ISZERO PUSH2 0x7EE JUMPI RETURNDATASIZE PUSH1 0x0 DUP1 RETURNDATACOPY RETURNDATASIZE PUSH1 0x0 REVERT JUMPDEST POP PUSH2 0x7F7 PUSH2 0x9CB JUMP JUMPDEST PUSH20 0xFFFFFFFFFFFFFFFFFFFFFFFFFFFFFFFFFFFFFFFF AND PUSH32 0x5FAFA99D0643513820BE26656B45130B01E1C03062E1266BF36F88CBD3BD9695 DUP3 PUSH1 0x40 MLOAD PUSH2 0x83C SWAP2 SWAP1 PUSH2 0x1292 JUMP JUMPDEST PUSH1 0x40 MLOAD DUP1 SWAP2 SUB SWAP1 LOG2 POP JUMP JUMPDEST PUSH1 0x2 DUP1 PUSH1 0x0 ADD PUSH1 0x0 SWAP1 SLOAD SWAP1 PUSH2 0x100 EXP SWAP1 DIV PUSH20 0xFFFFFFFFFFFFFFFFFFFFFFFFFFFFFFFFFFFFFFFF AND SWAP1 DUP1 PUSH1 0x1 ADD DUP1 SLOAD PUSH2 0x87E SWAP1 PUSH2 0x1537 JUMP JUMPDEST DUP1 PUSH1 0x1F ADD PUSH1 0x20 DUP1 SWAP2 DIV MUL PUSH1 0x20 ADD PUSH1 0x40 MLOAD SWAP1 DUP2 ADD PUSH1 0x40 MSTORE DUP1 SWAP3 SWAP2 SWAP1 DUP2 DUP2 MSTORE PUSH1 0x20 ADD DUP3 DUP1 SLOAD PUSH2 0x8AA SWAP1 PUSH2 0x1537 JUMP JUMPDEST DUP1 ISZERO PUSH2 0x8F7 JUMPI DUP1 PUSH1 0x1F LT PUSH2 0x8CC JUMPI PUSH2 0x100 DUP1 DUP4 SLOAD DIV MUL DUP4 MSTORE SWAP2 PUSH1 0x20 ADD SWAP2 PUSH2 0x8F7 JUMP JUMPDEST DUP3 ADD SWAP2 SWAP1 PUSH1 0x0 MSTORE PUSH1 0x20 PUSH1 0x0 KECCAK256 SWAP1 JUMPDEST DUP2 SLOAD DUP2 MSTORE SWAP1 PUSH1 0x1 ADD SWAP1 PUSH1 0x20 ADD DUP1 DUP4 GT PUSH2 0x8DA JUMPI DUP3 SWAP1 SUB PUSH1 0x1F AND DUP3 ADD SWAP2 JUMPDEST POP POP POP POP POP SWAP1 DUP1 PUSH1 0x2 ADD PUSH1 0x0 SWAP1 SLOAD SWAP1 PUSH2 0x100 EXP SWAP1 DIV PUSH20 0xFFFFFFFFFFFFFFFFFFFFFFFFFFFFFFFFFFFFFFFF AND SWAP1 DUP1 PUSH1 0x3 ADD SLOAD SWAP1 DUP1 PUSH1 0x4 ADD SLOAD SWAP1 DUP1 PUSH1 0x5 ADD SLOAD SWAP1 DUP1 PUSH1 0x6 ADD SLOAD SWAP1 DUP1 PUSH1 0x7 ADD SLOAD SWAP1 DUP1 PUSH1 0x8 ADD PUSH1 0x0 SWAP1 SLOAD SWAP1 PUSH2 0x100 EXP SWAP1 DIV PUSH1 0xFF AND SWAP1 POP DUP10 JUMP JUMPDEST PUSH1 0x0 PUSH1 0x60 PUSH1 0x2 PUSH1 0x8 ADD PUSH1 0x0 SWAP1 SLOAD SWAP1 PUSH2 0x100 EXP SWAP1 DIV PUSH1 0xFF AND DUP1 ISZERO PUSH2 0x980 JUMPI POP PUSH1 0x2 PUSH1 0x3 ADD SLOAD SELFBALANCE LT ISZERO JUMPDEST DUP1 ISZERO PUSH2 0x991 JUMPI POP PUSH1 0x2 PUSH1 0x7 ADD SLOAD TIMESTAMP LT ISZERO JUMPDEST SWAP2 POP DUP2 PUSH1 0x40 MLOAD DUP1 PUSH1 0x20 ADD PUSH1 0x40 MSTORE DUP1 PUSH1 0x0 DUP2 MSTORE POP SWAP2 POP SWAP2 POP SWAP3 POP SWAP3 SWAP1 POP JUMP JUMPDEST PUSH1 0x0 SELFBALANCE SWAP1 POP SWAP1 JUMP JUMPDEST PUSH2 0x9BF PUSH2 0xC16 JUMP JUMPDEST PUSH2 0x9C9 PUSH1 0x0 PUSH2 0xC94 JUMP JUMPDEST JUMP JUMPDEST PUSH1 0x0 PUSH1 0x1 PUSH1 0x0 SWAP1 SLOAD SWAP1 PUSH2 0x100 EXP SWAP1 DIV PUSH20 0xFFFFFFFFFFFFFFFFFFFFFFFFFFFFFFFFFFFFFFFF AND SWAP1 POP SWAP1 JUMP JUMPDEST PUSH2 0x9FD PUSH2 0xBBD JUMP JUMPDEST PUSH1 0x2 PUSH1 0x8 ADD PUSH1 0x0 SWAP1 SLOAD SWAP1 PUSH2 0x100 EXP SWAP1 DIV PUSH1 0xFF AND PUSH2 0xA4F JUMPI PUSH1 0x40 MLOAD PUSH32 0x8C379A000000000000000000000000000000000000000000000000000000000 DUP2 MSTORE PUSH1 0x4 ADD PUSH2 0xA46 SWAP1 PUSH2 0x1913 JUMP JUMPDEST PUSH1 0x40 MLOAD DUP1 SWAP2 SUB SWAP1 REVERT JUMPDEST PUSH1 0x2 PUSH1 0x0 ADD PUSH1 0x0 SWAP1 SLOAD SWAP1 PUSH2 0x100 EXP SWAP1 DIV PUSH20 0xFFFFFFFFFFFFFFFFFFFFFFFFFFFFFFFFFFFFFFFF AND PUSH20 0xFFFFFFFFFFFFFFFFFFFFFFFFFFFFFFFFFFFFFFFF AND CALLER PUSH20 0xFFFFFFFFFFFFFFFFFFFFFFFFFFFFFFFFFFFFFFFF AND EQ PUSH2 0xAE2 JUMPI PUSH1 0x40 MLOAD PUSH32 0x8C379A000000000000000000000000000000000000000000000000000000000 DUP2 MSTORE PUSH1 0x4 ADD PUSH2 0xAD9 SWAP1 PUSH2 0x197F JUMP JUMPDEST PUSH1 0x40 MLOAD DUP1 SWAP2 SUB SWAP1 REVERT JUMPDEST CALLER PUSH20 0xFFFFFFFFFFFFFFFFFFFFFFFFFFFFFFFFFFFFFFFF AND PUSH32 0xD15C9547EA5C06670C0010CE19BC32D54682A4B3801ECE7F3AB0C3F17106B4BB CALLVALUE PUSH1 0x40 MLOAD PUSH2 0xB28 SWAP2 SWAP1 PUSH2 0x1292 JUMP JUMPDEST PUSH1 0x40 MLOAD DUP1 SWAP2 SUB SWAP1 LOG2 PUSH2 0xB38 PUSH2 0xC0C JUMP JUMPDEST JUMP JUMPDEST PUSH2 0xB42 PUSH2 0xC16 JUMP JUMPDEST PUSH1 0x0 PUSH20 0xFFFFFFFFFFFFFFFFFFFFFFFFFFFFFFFFFFFFFFFF AND DUP2 PUSH20 0xFFFFFFFFFFFFFFFFFFFFFFFFFFFFFFFFFFFFFFFF AND SUB PUSH2 0xBB1 JUMPI PUSH1 0x40 MLOAD PUSH32 0x8C379A000000000000000000000000000000000000000000000000000000000 DUP2 MSTORE PUSH1 0x4 ADD PUSH2 0xBA8 SWAP1 PUSH2 0x1A11 JUMP JUMPDEST PUSH1 0x40 MLOAD DUP1 SWAP2 SUB SWAP1 REVERT JUMPDEST PUSH2 0xBBA DUP2 PUSH2 0xC94 JUMP JUMPDEST POP JUMP JUMPDEST PUSH1 0x2 PUSH1 0x0 SLOAD SUB PUSH2 0xC02 JUMPI PUSH1 0x40 MLOAD PUSH32 0x8C379A000000000000000000000000000000000000000000000000000000000 DUP2 MSTORE PUSH1 0x4 ADD PUSH2 0xBF9 SWAP1 PUSH2 0x1A7D JUMP JUMPDEST PUSH1 0x40 MLOAD DUP1 SWAP2 SUB SWAP1 REVERT JUMPDEST PUSH1 0x2 PUSH1 0x0 DUP2 SWAP1 SSTORE POP JUMP JUMPDEST PUSH1 0x1 PUSH1 0x0 DUP2 SWAP1 SSTORE POP JUMP JUMPDEST PUSH2 0xC1E PUSH2 0xD5A JUMP JUMPDEST PUSH20 0xFFFFFFFFFFFFFFFFFFFFFFFFFFFFFFFFFFFFFFFF AND PUSH2 0xC3C PUSH2 0x9CB JUMP JUMPDEST PUSH20 0xFFFFFFFFFFFFFFFFFFFFFFFFFFFFFFFFFFFFFFFF AND EQ PUSH2 0xC92 JUMPI PUSH1 0x40 MLOAD PUSH32 0x8C379A000000000000000000000000000000000000000000000000000000000 DUP2 MSTORE PUSH1 0x4 ADD PUSH2 0xC89 SWAP1 PUSH2 0x1AE9 JUMP JUMPDEST PUSH1 0x40 MLOAD DUP1 SWAP2 SUB SWAP1 REVERT JUMPDEST JUMP JUMPDEST PUSH1 0x0 PUSH1 0x1 PUSH1 0x0 SWAP1 SLOAD SWAP1 PUSH2 0x100 EXP SWAP1 DIV PUSH20 0xFFFFFFFFFFFFFFFFFFFFFFFFFFFFFFFFFFFFFFFF AND SWAP1 POP DUP2 PUSH1 0x1 PUSH1 0x0 PUSH2 0x100 EXP DUP2 SLOAD DUP2 PUSH20 0xFFFFFFFFFFFFFFFFFFFFFFFFFFFFFFFFFFFFFFFF MUL NOT AND SWAP1 DUP4 PUSH20 0xFFFFFFFFFFFFFFFFFFFFFFFFFFFFFFFFFFFFFFFF AND MUL OR SWAP1 SSTORE POP DUP2 PUSH20 0xFFFFFFFFFFFFFFFFFFFFFFFFFFFFFFFFFFFFFFFF AND DUP2 PUSH20 0xFFFFFFFFFFFFFFFFFFFFFFFFFFFFFFFFFFFFFFFF AND PUSH32 0x8BE0079C531659141344CD1FD0A4F28419497F9722A3DAAFE3B4186F6B6457E0 PUSH1 0x40 MLOAD PUSH1 0x40 MLOAD DUP1 SWAP2 SUB SWAP1 LOG3 POP POP JUMP JUMPDEST PUSH1 0x0 CALLER SWAP1 POP SWAP1 JUMP JUMPDEST PUSH1 0x0 PUSH1 0x40 MLOAD SWAP1 POP SWAP1 JUMP JUMPDEST PUSH1 0x0 DUP1 REVERT JUMPDEST PUSH1 0x0 DUP1 REVERT JUMPDEST PUSH1 0x0 PUSH20 0xFFFFFFFFFFFFFFFFFFFFFFFFFFFFFFFFFFFFFFFF DUP3 AND SWAP1 POP SWAP2 SWAP1 POP JUMP JUMPDEST PUSH1 0x0 PUSH2 0xDA1 DUP3 PUSH2 0xD76 JUMP JUMPDEST SWAP1 POP SWAP2 SWAP1 POP JUMP JUMPDEST PUSH2 0xDB1 DUP2 PUSH2 0xD96 JUMP JUMPDEST DUP2 EQ PUSH2 0xDBC JUMPI PUSH1 0x0 DUP1 REVERT JUMPDEST POP JUMP JUMPDEST PUSH1 0x0 DUP2 CALLDATALOAD SWAP1 POP PUSH2 0xDCE DUP2 PUSH2 0xDA8 JUMP JUMPDEST SWAP3 SWAP2 POP POP JUMP JUMPDEST PUSH1 0x0 DUP1 REVERT JUMPDEST PUSH1 0x0 DUP1 REVERT JUMPDEST PUSH1 0x0 PUSH1 0x1F NOT PUSH1 0x1F DUP4 ADD AND SWAP1 POP SWAP2 SWAP1 POP JUMP JUMPDEST PUSH32 0x4E487B7100000000000000000000000000000000000000000000000000000000 PUSH1 0x0 MSTORE PUSH1 0x41 PUSH1 0x4 MSTORE PUSH1 0x24 PUSH1 0x0 REVERT JUMPDEST PUSH2 0xE27 DUP3 PUSH2 0xDDE JUMP JUMPDEST DUP2 ADD DUP2 DUP2 LT PUSH8 0xFFFFFFFFFFFFFFFF DUP3 GT OR ISZERO PUSH2 0xE46 JUMPI PUSH2 0xE45 PUSH2 0xDEF JUMP JUMPDEST JUMPDEST DUP1 PUSH1 0x40 MSTORE POP POP POP JUMP JUMPDEST PUSH1 0x0 PUSH2 0xE59 PUSH2 0xD62 JUMP JUMPDEST SWAP1 POP PUSH2 0xE65 DUP3 DUP3 PUSH2 0xE1E JUMP JUMPDEST SWAP2 SWAP1 POP JUMP JUMPDEST PUSH1 0x0 PUSH8 0xFFFFFFFFFFFFFFFF DUP3 GT ISZERO PUSH2 0xE85 JUMPI PUSH2 0xE84 PUSH2 0xDEF JUMP JUMPDEST JUMPDEST PUSH2 0xE8E DUP3 PUSH2 0xDDE JUMP JUMPDEST SWAP1 POP PUSH1 0x20 DUP2 ADD SWAP1 POP SWAP2 SWAP1 POP JUMP JUMPDEST DUP3 DUP2 DUP4 CALLDATACOPY PUSH1 0x0 DUP4 DUP4 ADD MSTORE POP POP POP JUMP JUMPDEST PUSH1 0x0 PUSH2 0xEBD PUSH2 0xEB8 DUP5 PUSH2 0xE6A JUMP JUMPDEST PUSH2 0xE4F JUMP JUMPDEST SWAP1 POP DUP3 DUP2 MSTORE PUSH1 0x20 DUP2 ADD DUP5 DUP5 DUP5 ADD GT ISZERO PUSH2 0xED9 JUMPI PUSH2 0xED8 PUSH2 0xDD9 JUMP JUMPDEST JUMPDEST PUSH2 0xEE4 DUP5 DUP3 DUP6 PUSH2 0xE9B JUMP JUMPDEST POP SWAP4 SWAP3 POP POP POP JUMP JUMPDEST PUSH1 0x0 DUP3 PUSH1 0x1F DUP4 ADD SLT PUSH2 0xF01 JUMPI PUSH2 0xF00 PUSH2 0xDD4 JUMP JUMPDEST JUMPDEST DUP2 CALLDATALOAD PUSH2 0xF11 DUP5 DUP3 PUSH1 0x20 DUP7 ADD PUSH2 0xEAA JUMP JUMPDEST SWAP2 POP POP SWAP3 SWAP2 POP POP JUMP JUMPDEST PUSH1 0x0 DUP2 SWAP1 POP SWAP2 SWAP1 POP JUMP JUMPDEST PUSH2 0xF2D DUP2 PUSH2 0xF1A JUMP JUMPDEST DUP2 EQ PUSH2 0xF38 JUMPI PUSH1 0x0 DUP1 REVERT JUMPDEST POP JUMP JUMPDEST PUSH1 0x0 DUP2 CALLDATALOAD SWAP1 POP PUSH2 0xF4A DUP2 PUSH2 0xF24 JUMP JUMPDEST SWAP3 SWAP2 POP POP JUMP JUMPDEST PUSH1 0x0 DUP1 PUSH1 0x0 DUP1 PUSH1 0x0 PUSH1 0xA0 DUP7 DUP9 SUB SLT ISZERO PUSH2 0xF6C JUMPI PUSH2 0xF6B PUSH2 0xD6C JUMP JUMPDEST JUMPDEST PUSH1 0x0 PUSH2 0xF7A DUP9 DUP3 DUP10 ADD PUSH2 0xDBF JUMP JUMPDEST SWAP6 POP POP PUSH1 0x20 DUP7 ADD CALLDATALOAD PUSH8 0xFFFFFFFFFFFFFFFF DUP2 GT ISZERO PUSH2 0xF9B JUMPI PUSH2 0xF9A PUSH2 0xD71 JUMP JUMPDEST JUMPDEST PUSH2 0xFA7 DUP9 DUP3 DUP10 ADD PUSH2 0xEEC JUMP JUMPDEST SWAP5 POP POP PUSH1 0x40 PUSH2 0xFB8 DUP9 DUP3 DUP10 ADD PUSH2 0xF3B JUMP JUMPDEST SWAP4 POP POP PUSH1 0x60 PUSH2 0xFC9 DUP9 DUP3 DUP10 ADD PUSH2 0xF3B JUMP JUMPDEST SWAP3 POP POP PUSH1 0x80 PUSH2 0xFDA DUP9 DUP3 DUP10 ADD PUSH2 0xF3B JUMP JUMPDEST SWAP2 POP POP SWAP3 SWAP6 POP SWAP3 SWAP6 SWAP1 SWAP4 POP JUMP JUMPDEST PUSH1 0x0 DUP1 REVERT JUMPDEST PUSH1 0x0 DUP1 REVERT JUMPDEST PUSH1 0x0 DUP1 DUP4 PUSH1 0x1F DUP5 ADD SLT PUSH2 0x1007 JUMPI PUSH2 0x1006 PUSH2 0xDD4 JUMP JUMPDEST JUMPDEST DUP3 CALLDATALOAD SWAP1 POP PUSH8 0xFFFFFFFFFFFFFFFF DUP2 GT ISZERO PUSH2 0x1024 JUMPI PUSH2 0x1023 PUSH2 0xFE7 JUMP JUMPDEST JUMPDEST PUSH1 0x20 DUP4 ADD SWAP2 POP DUP4 PUSH1 0x1 DUP3 MUL DUP4 ADD GT ISZERO PUSH2 0x1040 JUMPI PUSH2 0x103F PUSH2 0xFEC JUMP JUMPDEST JUMPDEST SWAP3 POP SWAP3 SWAP1 POP JUMP JUMPDEST PUSH1 0x0 DUP1 PUSH1 0x20 DUP4 DUP6 SUB SLT ISZERO PUSH2 0x105E JUMPI PUSH2 0x105D PUSH2 0xD6C JUMP JUMPDEST JUMPDEST PUSH1 0x0 DUP4 ADD CALLDATALOAD PUSH8 0xFFFFFFFFFFFFFFFF DUP2 GT ISZERO PUSH2 0x107C JUMPI PUSH2 0x107B PUSH2 0xD71 JUMP JUMPDEST JUMPDEST PUSH2 0x1088 DUP6 DUP3 DUP7 ADD PUSH2 0xFF1 JUMP JUMPDEST SWAP3 POP SWAP3 POP POP SWAP3 POP SWAP3 SWAP1 POP JUMP JUMPDEST PUSH1 0x0 PUSH1 0x20 DUP3 DUP5 SUB SLT ISZERO PUSH2 0x10AA JUMPI PUSH2 0x10A9 PUSH2 0xD6C JUMP JUMPDEST JUMPDEST PUSH1 0x0 PUSH2 0x10B8 DUP5 DUP3 DUP6 ADD PUSH2 0xF3B JUMP JUMPDEST SWAP2 POP POP SWAP3 SWAP2 POP POP JUMP JUMPDEST PUSH2 0x10CA DUP2 PUSH2 0xD96 JUMP JUMPDEST DUP3 MSTORE POP POP JUMP JUMPDEST PUSH1 0x0 DUP2 MLOAD SWAP1 POP SWAP2 SWAP1 POP JUMP JUMPDEST PUSH1 0x0 DUP3 DUP3 MSTORE PUSH1 0x20 DUP3 ADD SWAP1 POP SWAP3 SWAP2 POP POP JUMP JUMPDEST PUSH1 0x0 JUMPDEST DUP4 DUP2 LT ISZERO PUSH2 0x110A JUMPI DUP1 DUP3 ADD MLOAD DUP2 DUP5 ADD MSTORE PUSH1 0x20 DUP2 ADD SWAP1 POP PUSH2 0x10EF JUMP JUMPDEST PUSH1 0x0 DUP5 DUP5 ADD MSTORE POP POP POP POP JUMP JUMPDEST PUSH1 0x0 PUSH2 0x1121 DUP3 PUSH2 0x10D0 JUMP JUMPDEST PUSH2 0x112B DUP2 DUP6 PUSH2 0x10DB JUMP JUMPDEST SWAP4 POP PUSH2 0x113B DUP2 DUP6 PUSH1 0x20 DUP7 ADD PUSH2 0x10EC JUMP JUMPDEST PUSH2 0x1144 DUP2 PUSH2 0xDDE JUMP JUMPDEST DUP5 ADD SWAP2 POP POP SWAP3 SWAP2 POP POP JUMP JUMPDEST PUSH2 0x1158 DUP2 PUSH2 0xF1A JUMP JUMPDEST DUP3 MSTORE POP POP JUMP JUMPDEST PUSH1 0x0 DUP2 ISZERO ISZERO SWAP1 POP SWAP2 SWAP1 POP JUMP JUMPDEST PUSH2 0x1173 DUP2 PUSH2 0x115E JUMP JUMPDEST DUP3 MSTORE POP POP JUMP JUMPDEST PUSH1 0x0 PUSH2 0x120 DUP3 ADD SWAP1 POP PUSH2 0x118F PUSH1 0x0 DUP4 ADD DUP13 PUSH2 0x10C1 JUMP JUMPDEST DUP2 DUP2 SUB PUSH1 0x20 DUP4 ADD MSTORE PUSH2 0x11A1 DUP2 DUP12 PUSH2 0x1116 JUMP JUMPDEST SWAP1 POP PUSH2 0x11B0 PUSH1 0x40 DUP4 ADD DUP11 PUSH2 0x10C1 JUMP JUMPDEST PUSH2 0x11BD PUSH1 0x60 DUP4 ADD DUP10 PUSH2 0x114F JUMP JUMPDEST PUSH2 0x11CA PUSH1 0x80 DUP4 ADD DUP9 PUSH2 0x114F JUMP JUMPDEST PUSH2 0x11D7 PUSH1 0xA0 DUP4 ADD DUP8 PUSH2 0x114F JUMP JUMPDEST PUSH2 0x11E4 PUSH1 0xC0 DUP4 ADD DUP7 PUSH2 0x114F JUMP JUMPDEST PUSH2 0x11F1 PUSH1 0xE0 DUP4 ADD DUP6 PUSH2 0x114F JUMP JUMPDEST PUSH2 0x11FF PUSH2 0x100 DUP4 ADD DUP5 PUSH2 0x116A JUMP JUMPDEST SWAP11 SWAP10 POP POP POP POP POP POP POP POP POP POP JUMP JUMPDEST PUSH1 0x0 DUP2 MLOAD SWAP1 POP SWAP2 SWAP1 POP JUMP JUMPDEST PUSH1 0x0 DUP3 DUP3 MSTORE PUSH1 0x20 DUP3 ADD SWAP1 POP SWAP3 SWAP2 POP POP JUMP JUMPDEST PUSH1 0x0 PUSH2 0x1234 DUP3 PUSH2 0x120D JUMP JUMPDEST PUSH2 0x123E DUP2 DUP6 PUSH2 0x1218 JUMP JUMPDEST SWAP4 POP PUSH2 0x124E DUP2 DUP6 PUSH1 0x20 DUP7 ADD PUSH2 0x10EC JUMP JUMPDEST PUSH2 0x1257 DUP2 PUSH2 0xDDE JUMP JUMPDEST DUP5 ADD SWAP2 POP POP SWAP3 SWAP2 POP POP JUMP JUMPDEST PUSH1 0x0 PUSH1 0x40 DUP3 ADD SWAP1 POP PUSH2 0x1277 PUSH1 0x0 DUP4 ADD DUP6 PUSH2 0x116A JUMP JUMPDEST DUP2 DUP2 SUB PUSH1 0x20 DUP4 ADD MSTORE PUSH2 0x1289 DUP2 DUP5 PUSH2 0x1229 JUMP JUMPDEST SWAP1 POP SWAP4 SWAP3 POP POP POP JUMP JUMPDEST PUSH1 0x0 PUSH1 0x20 DUP3 ADD SWAP1 POP PUSH2 0x12A7 PUSH1 0x0 DUP4 ADD DUP5 PUSH2 0x114F JUMP JUMPDEST SWAP3 SWAP2 POP POP JUMP JUMPDEST PUSH1 0x0 PUSH1 0x20 DUP3 ADD SWAP1 POP PUSH2 0x12C2 PUSH1 0x0 DUP4 ADD DUP5 PUSH2 0x10C1 JUMP JUMPDEST SWAP3 SWAP2 POP POP JUMP JUMPDEST PUSH1 0x0 PUSH1 0x20 DUP3 DUP5 SUB SLT ISZERO PUSH2 0x12DE JUMPI PUSH2 0x12DD PUSH2 0xD6C JUMP JUMPDEST JUMPDEST PUSH1 0x0 PUSH2 0x12EC DUP5 DUP3 DUP6 ADD PUSH2 0xDBF JUMP JUMPDEST SWAP2 POP POP SWAP3 SWAP2 POP POP JUMP JUMPDEST PUSH32 0x496E76616C69642073656E646572000000000000000000000000000000000000 PUSH1 0x0 DUP3 ADD MSTORE POP JUMP JUMPDEST PUSH1 0x0 PUSH2 0x132B PUSH1 0xE DUP4 PUSH2 0x10DB JUMP JUMPDEST SWAP2 POP PUSH2 0x1336 DUP3 PUSH2 0x12F5 JUMP JUMPDEST PUSH1 0x20 DUP3 ADD SWAP1 POP SWAP2 SWAP1 POP JUMP JUMPDEST PUSH1 0x0 PUSH1 0x20 DUP3 ADD SWAP1 POP DUP2 DUP2 SUB PUSH1 0x0 DUP4 ADD MSTORE PUSH2 0x135A DUP2 PUSH2 0x131E JUMP JUMPDEST SWAP1 POP SWAP2 SWAP1 POP JUMP JUMPDEST PUSH32 0x454D4920616D6F756E74206D757374206265203E203000000000000000000000 PUSH1 0x0 DUP3 ADD MSTORE POP JUMP JUMPDEST PUSH1 0x0 PUSH2 0x1397 PUSH1 0x16 DUP4 PUSH2 0x10DB JUMP JUMPDEST SWAP2 POP PUSH2 0x13A2 DUP3 PUSH2 0x1361 JUMP JUMPDEST PUSH1 0x20 DUP3 ADD SWAP1 POP SWAP2 SWAP1 POP JUMP JUMPDEST PUSH1 0x0 PUSH1 0x20 DUP3 ADD SWAP1 POP DUP2 DUP2 SUB PUSH1 0x0 DUP4 ADD MSTORE PUSH2 0x13C6 DUP2 PUSH2 0x138A JUMP JUMPDEST SWAP1 POP SWAP2 SWAP1 POP JUMP JUMPDEST PUSH32 0x496E74657276616C206D757374206265203E3D203630207365636F6E64730000 PUSH1 0x0 DUP3 ADD MSTORE POP JUMP JUMPDEST PUSH1 0x0 PUSH2 0x1403 PUSH1 0x1E DUP4 PUSH2 0x10DB JUMP JUMPDEST SWAP2 POP PUSH2 0x140E DUP3 PUSH2 0x13CD JUMP JUMPDEST PUSH1 0x20 DUP3 ADD SWAP1 POP SWAP2 SWAP1 POP JUMP JUMPDEST PUSH1 0x0 PUSH1 0x20 DUP3 ADD SWAP1 POP DUP2 DUP2 SUB PUSH1 0x0 DUP4 ADD MSTORE PUSH2 0x1432 DUP2 PUSH2 0x13F6 JUMP JUMPDEST SWAP1 POP SWAP2 SWAP1 POP JUMP JUMPDEST PUSH32 0x546F74616C206D757374206265203E20454D4920616D6F756E74000000000000 PUSH1 0x0 DUP3 ADD MSTORE POP JUMP JUMPDEST PUSH1 0x0 PUSH2 0x146F PUSH1 0x1A DUP4 PUSH2 0x10DB JUMP JUMPDEST SWAP2 POP PUSH2 0x147A DUP3 PUSH2 0x1439 JUMP JUMPDEST PUSH1 0x20 DUP3 ADD SWAP1 POP SWAP2 SWAP1 POP JUMP JUMPDEST PUSH1 0x0 PUSH1 0x20 DUP3 ADD SWAP1 POP DUP2 DUP2 SUB PUSH1 0x0 DUP4 ADD MSTORE PUSH2 0x149E DUP2 PUSH2 0x1462 JUMP JUMPDEST SWAP1 POP SWAP2 SWAP1 POP JUMP JUMPDEST PUSH32 0x4E487B7100000000000000000000000000000000000000000000000000000000 PUSH1 0x0 MSTORE PUSH1 0x11 PUSH1 0x4 MSTORE PUSH1 0x24 PUSH1 0x0 REVERT JUMPDEST PUSH1 0x0 PUSH2 0x14DF DUP3 PUSH2 0xF1A JUMP JUMPDEST SWAP2 POP PUSH2 0x14EA DUP4 PUSH2 0xF1A JUMP JUMPDEST SWAP3 POP DUP3 DUP3 ADD SWAP1 POP DUP1 DUP3 GT ISZERO PUSH2 0x1502 JUMPI PUSH2 0x1501 PUSH2 0x14A5 JUMP JUMPDEST JUMPDEST SWAP3 SWAP2 POP POP JUMP JUMPDEST PUSH32 0x4E487B7100000000000000000000000000000000000000000000000000000000 PUSH1 0x0 MSTORE PUSH1 0x22 PUSH1 0x4 MSTORE PUSH1 0x24 PUSH1 0x0 REVERT JUMPDEST PUSH1 0x0 PUSH1 0x2 DUP3 DIV SWAP1 POP PUSH1 0x1 DUP3 AND DUP1 PUSH2 0x154F JUMPI PUSH1 0x7F DUP3 AND SWAP2 POP JUMPDEST PUSH1 0x20 DUP3 LT DUP2 SUB PUSH2 0x1562 JUMPI PUSH2 0x1561 PUSH2 0x1508 JUMP JUMPDEST JUMPDEST POP SWAP2 SWAP1 POP JUMP JUMPDEST PUSH1 0x0 DUP2 SWAP1 POP DUP2 PUSH1 0x0 MSTORE PUSH1 0x20 PUSH1 0x0 KECCAK256 SWAP1 POP SWAP2 SWAP1 POP JUMP JUMPDEST PUSH1 0x0 PUSH1 0x20 PUSH1 0x1F DUP4 ADD DIV SWAP1 POP SWAP2 SWAP1 POP JUMP JUMPDEST PUSH1 0x0 DUP3 DUP3 SHL SWAP1 POP SWAP3 SWAP2 POP POP JUMP JUMPDEST PUSH1 0x0 PUSH1 0x8 DUP4 MUL PUSH2 0x15CA PUSH32 0xFFFFFFFFFFFFFFFFFFFFFFFFFFFFFFFFFFFFFFFFFFFFFFFFFFFFFFFFFFFFFFFF DUP3 PUSH2 0x158D JUMP JUMPDEST PUSH2 0x15D4 DUP7 DUP4 PUSH2 0x158D JUMP JUMPDEST SWAP6 POP DUP1 NOT DUP5 AND SWAP4 POP DUP1 DUP7 AND DUP5 OR SWAP3 POP POP POP SWAP4 SWAP3 POP POP POP JUMP JUMPDEST PUSH1 0x0 DUP2 SWAP1 POP SWAP2 SWAP1 POP JUMP JUMPDEST PUSH1 0x0 PUSH2 0x1611 PUSH2 0x160C PUSH2 0x1607 DUP5 PUSH2 0xF1A JUMP JUMPDEST PUSH2 0x15EC JUMP JUMPDEST PUSH2 0xF1A JUMP JUMPDEST SWAP1 POP SWAP2 SWAP1 POP JUMP JUMPDEST PUSH1 0x0 DUP2 SWAP1 POP SWAP2 SWAP1 POP JUMP JUMPDEST PUSH2 0x162B DUP4 PUSH2 0x15F6 JUMP JUMPDEST PUSH2 0x163F PUSH2 0x1637 DUP3 PUSH2 0x1618 JUMP JUMPDEST DUP5 DUP5 SLOAD PUSH2 0x159A JUMP JUMPDEST DUP3 SSTORE POP POP POP POP JUMP JUMPDEST PUSH1 0x0 SWAP1 JUMP JUMPDEST PUSH2 0x1654 PUSH2 0x1647 JUMP JUMPDEST PUSH2 0x165F DUP2 DUP5 DUP5 PUSH2 0x1622 JUMP JUMPDEST POP POP POP JUMP JUMPDEST JUMPDEST DUP2 DUP2 LT ISZERO PUSH2 0x1683 JUMPI PUSH2 0x1678 PUSH1 0x0 DUP3 PUSH2 0x164C JUMP JUMPDEST PUSH1 0x1 DUP2 ADD SWAP1 POP PUSH2 0x1665 JUMP JUMPDEST POP POP JUMP JUMPDEST PUSH1 0x1F DUP3 GT ISZERO PUSH2 0x16C8 JUMPI PUSH2 0x1699 DUP2 PUSH2 0x1568 JUMP JUMPDEST PUSH2 0x16A2 DUP5 PUSH2 0x157D JUMP JUMPDEST DUP2 ADD PUSH1 0x20 DUP6 LT ISZERO PUSH2 0x16B1 JUMPI DUP2 SWAP1 POP JUMPDEST PUSH2 0x16C5 PUSH2 0x16BD DUP6 PUSH2 0x157D JUMP JUMPDEST DUP4 ADD DUP3 PUSH2 0x1664 JUMP JUMPDEST POP POP JUMPDEST POP POP POP JUMP JUMPDEST PUSH1 0x0 DUP3 DUP3 SHR SWAP1 POP SWAP3 SWAP2 POP POP JUMP JUMPDEST PUSH1 0x0 PUSH2 0x16EB PUSH1 0x0 NOT DUP5 PUSH1 0x8 MUL PUSH2 0x16CD JUMP JUMPDEST NOT DUP1 DUP4 AND SWAP2 POP POP SWAP3 SWAP2 POP POP JUMP JUMPDEST PUSH1 0x0 PUSH2 0x1704 DUP4 DUP4 PUSH2 0x16DA JUMP JUMPDEST SWAP2 POP DUP3 PUSH1 0x2 MUL DUP3 OR SWAP1 POP SWAP3 SWAP2 POP POP JUMP JUMPDEST PUSH2 0x171D DUP3 PUSH2 0x10D0 JUMP JUMPDEST PUSH8 0xFFFFFFFFFFFFFFFF DUP2 GT ISZERO PUSH2 0x1736 JUMPI PUSH2 0x1735 PUSH2 0xDEF JUMP JUMPDEST JUMPDEST PUSH2 0x1740 DUP3 SLOAD PUSH2 0x1537 JUMP JUMPDEST PUSH2 0x174B DUP3 DUP3 DUP6 PUSH2 0x1687 JUMP JUMPDEST PUSH1 0x0 PUSH1 0x20 SWAP1 POP PUSH1 0x1F DUP4 GT PUSH1 0x1 DUP2 EQ PUSH2 0x177E JUMPI PUSH1 0x0 DUP5 ISZERO PUSH2 0x176C JUMPI DUP3 DUP8 ADD MLOAD SWAP1 POP JUMPDEST PUSH2 0x1776 DUP6 DUP3 PUSH2 0x16F8 JUMP JUMPDEST DUP7 SSTORE POP PUSH2 0x17DE JUMP JUMPDEST PUSH1 0x1F NOT DUP5 AND PUSH2 0x178C DUP7 PUSH2 0x1568 JUMP JUMPDEST PUSH1 0x0 JUMPDEST DUP3 DUP2 LT ISZERO PUSH2 0x17B4 JUMPI DUP5 DUP10 ADD MLOAD DUP3 SSTORE PUSH1 0x1 DUP3 ADD SWAP2 POP PUSH1 0x20 DUP6 ADD SWAP5 POP PUSH1 0x20 DUP2 ADD SWAP1 POP PUSH2 0x178F JUMP JUMPDEST DUP7 DUP4 LT ISZERO PUSH2 0x17D1 JUMPI DUP5 DUP10 ADD MLOAD PUSH2 0x17CD PUSH1 0x1F DUP10 AND DUP3 PUSH2 0x16DA JUMP JUMPDEST DUP4 SSTORE POP JUMPDEST PUSH1 0x1 PUSH1 0x2 DUP9 MUL ADD DUP9 SSTORE POP POP POP JUMPDEST POP POP POP POP POP POP JUMP JUMPDEST PUSH1 0x0 PUSH1 0x80 DUP3 ADD SWAP1 POP DUP2 DUP2 SUB PUSH1 0x0 DUP4 ADD MSTORE PUSH2 0x1800 DUP2 DUP8 PUSH2 0x1116 JUMP JUMPDEST SWAP1 POP PUSH2 0x180F PUSH1 0x20 DUP4 ADD DUP7 PUSH2 0x114F JUMP JUMPDEST PUSH2 0x181C PUSH1 0x40 DUP4 ADD DUP6 PUSH2 0x114F JUMP JUMPDEST PUSH2 0x1829 PUSH1 0x60 DUP4 ADD DUP5 PUSH2 0x114F JUMP JUMPDEST SWAP6 SWAP5 POP POP POP POP POP JUMP JUMPDEST PUSH1 0x0 PUSH1 0x40 DUP3 ADD SWAP1 POP PUSH2 0x1847 PUSH1 0x0 DUP4 ADD DUP6 PUSH2 0x114F JUMP JUMPDEST PUSH2 0x1854 PUSH1 0x20 DUP4 ADD DUP5 PUSH2 0x114F JUMP JUMPDEST SWAP4 SWAP3 POP POP POP JUMP JUMPDEST PUSH32 0x496E73756666696369656E742062616C616E6365000000000000000000000000 PUSH1 0x0 DUP3 ADD MSTORE POP JUMP JUMPDEST PUSH1 0x0 PUSH2 0x1891 PUSH1 0x14 DUP4 PUSH2 0x10DB JUMP JUMPDEST SWAP2 POP PUSH2 0x189C DUP3 PUSH2 0x185B JUMP JUMPDEST PUSH1 0x20 DUP3 ADD SWAP1 POP SWAP2 SWAP1 POP JUMP JUMPDEST PUSH1 0x0 PUSH1 0x20 DUP3 ADD SWAP1 POP DUP2 DUP2 SUB PUSH1 0x0 DUP4 ADD MSTORE PUSH2 0x18C0 DUP2 PUSH2 0x1884 JUMP JUMPDEST SWAP1 POP SWAP2 SWAP1 POP JUMP JUMPDEST PUSH32 0x506C616E206E6F74206163746976650000000000000000000000000000000000 PUSH1 0x0 DUP3 ADD MSTORE POP JUMP JUMPDEST PUSH1 0x0 PUSH2 0x18FD PUSH1 0xF DUP4 PUSH2 0x10DB JUMP JUMPDEST SWAP2 POP PUSH2 0x1908 DUP3 PUSH2 0x18C7 JUMP JUMPDEST PUSH1 0x20 DUP3 ADD SWAP1 POP SWAP2 SWAP1 POP JUMP JUMPDEST PUSH1 0x0 PUSH1 0x20 DUP3 ADD SWAP1 POP DUP2 DUP2 SUB PUSH1 0x0 DUP4 ADD MSTORE PUSH2 0x192C DUP2 PUSH2 0x18F0 JUMP JUMPDEST SWAP1 POP SWAP2 SWAP1 POP JUMP JUMPDEST PUSH32 0x4F6E6C792073656E6465722063616E206465706F736974000000000000000000 PUSH1 0x0 DUP3 ADD MSTORE POP JUMP JUMPDEST PUSH1 0x0 PUSH2 0x1969 PUSH1 0x17 DUP4 PUSH2 0x10DB JUMP JUMPDEST SWAP2 POP PUSH2 0x1974 DUP3 PUSH2 0x1933 JUMP JUMPDEST PUSH1 0x20 DUP3 ADD SWAP1 POP SWAP2 SWAP1 POP JUMP JUMPDEST PUSH1 0x0 PUSH1 0x20 DUP3 ADD SWAP1 POP DUP2 DUP2 SUB PUSH1 0x0 DUP4 ADD MSTORE PUSH2 0x1998 DUP2 PUSH2 0x195C JUMP JUMPDEST SWAP1 POP SWAP2 SWAP1 POP JUMP JUMPDEST PUSH32 0x4F776E61626C653A206E6577206F776E657220697320746865207A65726F2061 PUSH1 0x0 DUP3 ADD MSTORE PUSH32 0x6464726573730000000000000000000000000000000000000000000000000000 PUSH1 0x20 DUP3 ADD MSTORE POP JUMP JUMPDEST PUSH1 0x0 PUSH2 0x19FB PUSH1 0x26 DUP4 PUSH2 0x10DB JUMP JUMPDEST SWAP2 POP PUSH2 0x1A06 DUP3 PUSH2 0x199F JUMP JUMPDEST PUSH1 0x40 DUP3 ADD SWAP1 POP SWAP2 SWAP1 POP JUMP JUMPDEST PUSH1 0x0 PUSH1 0x20 DUP3 ADD SWAP1 POP DUP2 DUP2 SUB PUSH1 0x0 DUP4 ADD MSTORE PUSH2 0x1A2A DUP2 PUSH2 0x19EE JUMP JUMPDEST SWAP1 POP SWAP2 SWAP1 POP JUMP JUMPDEST PUSH32 0x5265656E7472616E637947756172643A207265656E7472616E742063616C6C00 PUSH1 0x0 DUP3 ADD MSTORE POP JUMP JUMPDEST PUSH1 0x0 PUSH2 0x1A67 PUSH1 0x1F DUP4 PUSH2 0x10DB JUMP JUMPDEST SWAP2 POP PUSH2 0x1A72 DUP3 PUSH2 0x1A31 JUMP JUMPDEST PUSH1 0x20 DUP3 ADD SWAP1 POP SWAP2 SWAP1 POP JUMP JUMPDEST PUSH1 0x0 PUSH1 0x20 DUP3 ADD SWAP1 POP DUP2 DUP2 SUB PUSH1 0x0 DUP4 ADD MSTORE PUSH2 0x1A96 DUP2 PUSH2 0x1A5A JUMP JUMPDEST SWAP1 POP SWAP2 SWAP1 POP JUMP JUMPDEST PUSH32 0x4F776E61626C653A2063616C6C6572206973206E6F7420746865206F776E6572 PUSH1 0x0 DUP3 ADD MSTORE POP JUMP JUMPDEST PUSH1 0x0 PUSH2 0x1AD3 PUSH1 0x20 DUP4 PUSH2 0x10DB JUMP JUMPDEST SWAP2 POP PUSH2 0x1ADE DUP3 PUSH2 0x1A9D JUMP JUMPDEST PUSH1 0x20 DUP3 ADD SWAP1 POP SWAP2 SWAP1 POP JUMP JUMPDEST PUSH1 0x0 PUSH1 0x20 DUP3 ADD SWAP1 POP DUP2 DUP2 SUB PUSH1 0x0 DUP4 ADD MSTORE PUSH2 0x1B02 DUP2 PUSH2 0x1AC6 JUMP JUMPDEST SWAP1 POP SWAP2 SWAP1 POP JUMP INVALID LOG2 PUSH5 0x6970667358 0x22 SLT KECCAK256 0xB7 CALLDATACOPY DELEGATECALL 0x1F SWAP1 0xAA 0xCC 0xC1 0xA5 SWAP5 0xB4 GASPRICE DUP11 KECCAK256 PUSH29 0xE705B8B70A3C5331439BB7C3728692ADAD64736F6C6343000814003300 "},"methodIdentifiers":{"checkUpkeep(bytes)":"6e04ff0d","createEmiPlan(address,string,uint256,uint256,uint256)":"00a1dd3e","depositFunds()":"e2c41dbc","emergencyWithdraw(uint256)":"5312ea8e","getContractBalance()":"6f9fb98a","owner()":"8da5cb5b","performUpkeep(bytes)":"4585e33b","plan()":"53e06571","renounceOwnership()":"715018a6","transferOwnership(address)":"f2fde38b"}}}}}