{
  "_format": "hh-sol-artifact-1",
  "contractName": "EmiAutoPay",
  "sourceName": "contracts/EmiAutoPay.sol",
  "abi": [
    {
      "anonymous": false,
      "inputs": [
        {
          "indexed": true,
          "internalType": "address",
          "name": "sender",
          "type": "address"
        },
        {
          "indexed": false,
          "internalType": "uint256",
          "name": "amount",
          "type": "uint256"
        }
      ],
      "name": "DepositMade",
      "type": "event"
    },
    {
      "anonymous": false,
      "inputs": [
        {
          "indexed": true,
          "internalType": "address",
          "name": "owner",
          "type": "address"
        },
        {
          "indexed": false,
          "internalType": "uint256",
          "name": "amount",
          "type": "uint256"
        }
      ],
      "name": "EmergencyWithdraw",
      "type": "event"
    },
    {
      "anonymous": false,
      "inputs": [
        {
          "indexed": true,
          "internalType": "address",
          "name": "receiver",
          "type": "address"
        }
      ],
      "name": "EmiCompleted",
      "type": "event"
    },
    {
      "anonymous": false,
      "inputs": [
        {
          "indexed": true,
          "internalType": "address",
          "name": "receiver",
          "type": "address"
        },
        {
          "indexed": false,
          "internalType": "uint256",
          "name": "amount",
          "type": "uint256"
        },
        {
          "indexed": false,
          "internalType": "uint256",
          "name": "nextPaymentTime",
          "type": "uint256"
        }
      ],
      "name": "EmiPaid",
      "type": "event"
    },
    {
      "anonymous": false,
      "inputs": [
        {
          "indexed": true,
          "internalType": "address",
          "name": "sender",
          "type": "address"
        },
        {
          "indexed": true,
          "internalType": "address",
          "name": "receiver",
          "type": "address"
        },
        {
          "indexed": false,
          "internalType": "uint256",
          "name": "emiAmount",
          "type": "uint256"
        },
        {
          "indexed": false,
          "internalType": "uint256",
          "name": "interval",
          "type": "uint256"
        },
        {
          "indexed": false,
          "internalType": "uint256",
          "name": "totalAmount",
          "type": "uint256"
        }
      ],
      "name": "EmiPlanCreated",
      "type": "event"
    },
    {
      "anonymous": false,
      "inputs": [
        {
          "indexed": true,
          "internalType": "address",
          "name": "previousOwner",
          "type": "address"
        },
        {
          "indexed": true,
          "internalType": "address",
          "name": "newOwner",
          "type": "address"
        }
      ],
      "name": "OwnershipTransferred",
      "type": "event"
    },
    {
      "inputs": [
        {
          "internalType": "bytes",
          "name": "",
          "type": "bytes"
        }
      ],
      "name": "checkUpkeep",
      "outputs": [
        {
          "internalType": "bool",
          "name": "upkeepNeeded",
          "type": "bool"
        },
        {
          "internalType": "bytes",
          "name": "",
          "type": "bytes"
        }
      ],
      "stateMutability": "view",
      "type": "function"
    },
    {
      "inputs": [
        {
          "internalType": "address",
          "name": "_sender",
          "type": "address"
        },
        {
          "internalType": "uint256",
          "name": "_emiAmount",
          "type": "uint256"
        },
        {
          "internalType": "uint256",
          "name": "_interval",
          "type": "uint256"
        },
        {
          "internalType": "uint256",
          "name": "_totalAmount",
          "type": "uint256"
        }
      ],
      "name": "createEmiPlan",
      "outputs": [],
      "stateMutability": "nonpayable",
      "type": "function"
    },
    {
      "inputs": [],
      "name": "depositFunds",
      "outputs": [],
      "stateMutability": "payable",
      "type": "function"
    },
    {
      "inputs": [
        {
          "internalType": "uint256",
          "name": "amount",
          "type": "uint256"
        }
      ],
      "name": "emergencyWithdraw",
      "outputs": [],
      "stateMutability": "nonpayable",
      "type": "function"
    },
    {
      "inputs": [],
      "name": "getContractBalance",
      "outputs": [
        {
          "internalType": "uint256",
          "name": "",
          "type": "uint256"
        }
      ],
      "stateMutability": "view",
      "type": "function"
    },
    {
      "inputs": [],
      "name": "owner",
      "outputs": [
        {
          "internalType": "address",
          "name": "",
          "type": "address"
        }
      ],
      "stateMutability": "view",
      "type": "function"
    },
    {
      "inputs": [
        {
          "internalType": "bytes",
          "name": "",
          "type": "bytes"
        }
      ],
      "name": "performUpkeep",
      "outputs": [],
      "stateMutability": "nonpayable",
      "type": "function"
    },
    {
      "inputs": [],
      "name": "plan",
      "outputs": [
        {
          "internalType": "address",
          "name": "sender",
          "type": "address"
        },
        {
          "internalType": "address",
          "name": "receiver",
          "type": "address"
        },
        {
          "internalType": "uint256",
          "name": "emiAmount",
          "type": "uint256"
        },
        {
          "internalType": "uint256",
          "name": "interval",
          "type": "uint256"
        },
        {
          "internalType": "uint256",
          "name": "totalAmount",
          "type": "uint256"
        },
        {
          "internalType": "uint256",
          "name": "amountPaid",
          "type": "uint256"
        },
        {
          "internalType": "uint256",
          "name": "nextPaymentTime",
          "type": "uint256"
        },
        {
          "internalType": "bool",
          "name": "isActive",
          "type": "bool"
        }
      ],
      "stateMutability": "view",
      "type": "function"
    },
    {
      "inputs": [],
      "name": "renounceOwnership",
      "outputs": [],
      "stateMutability": "nonpayable",
      "type": "function"
    },
    {
      "inputs": [
        {
          "internalType": "address",
          "name": "newOwner",
          "type": "address"
        }
      ],
      "name": "transferOwnership",
      "outputs": [],
      "stateMutability": "nonpayable",
      "type": "function"
    }
  ],
  "bytecode": "0x608060405234801561001057600080fd5b50600160008190555061003561002a61003a60201b60201c565b61004260201b60201c565b610108565b600033905090565b6000600160009054906101000a900473ffffffffffffffffffffffffffffffffffffffff16905081600160006101000a81548173ffffffffffffffffffffffffffffffffffffffff021916908373ffffffffffffffffffffffffffffffffffffffff1602179055508173ffffffffffffffffffffffffffffffffffffffff168173ffffffffffffffffffffffffffffffffffffffff167f8be0079c531659141344cd1fd0a4f28419497f9722a3daafe3b4186f6b6457e060405160405180910390a35050565b6115d8806101176000396000f3fe6080604052600436106100915760003560e01c8063715018a611610059578063715018a6146101835780638da5cb5b1461019a578063e2c41dbc146101c5578063e39a75c0146101cf578063f2fde38b146101f857610091565b80634585e33b146100965780635312ea8e146100bf57806353e06571146100e85780636e04ff0d1461011a5780636f9fb98a14610158575b600080fd5b3480156100a257600080fd5b506100bd60048036038101906100b89190610d21565b610221565b005b3480156100cb57600080fd5b506100e660048036038101906100e19190610da4565b610434565b005b3480156100f457600080fd5b506100fd610525565b604051610111989796959493929190610e3c565b60405180910390f35b34801561012657600080fd5b50610141600480360381019061013c9190610d21565b6105a8565b60405161014f929190610f4a565b60405180910390f35b34801561016457600080fd5b5061016d6105fe565b60405161017a9190610f7a565b60405180910390f35b34801561018f57600080fd5b50610198610606565b005b3480156101a657600080fd5b506101af61061a565b6040516101bc9190610f95565b60405180910390f35b6101cd610644565b005b3480156101db57600080fd5b506101f660048036038101906101f19190610fdc565b610789565b005b34801561020457600080fd5b5061021f600480360381019061021a9190611043565b610a8a565b005b610229610b0d565b600260070160009054906101000a900460ff16801561024c575060028001544710155b801561025d57506002600601544210155b1561042757600260010160009054906101000a900473ffffffffffffffffffffffffffffffffffffffff1673ffffffffffffffffffffffffffffffffffffffff166108fc60028001549081150290604051600060405180830381858888f193505050501580156102d1573d6000803e3d6000fd5b506002800154600260050160008282546102eb919061109f565b925050819055506002600401546002600501541061038e576000600260070160006101000a81548160ff021916908315150217905550600260010160009054906101000a900473ffffffffffffffffffffffffffffffffffffffff1673ffffffffffffffffffffffffffffffffffffffff167f209d75a7c13fb985ae4710a4c74a4d6886d9de5c7dc6e3a98959de78fb2dc30e60405160405180910390a2610428565b6002600301544261039f919061109f565b600260060181905550600260010160009054906101000a900473ffffffffffffffffffffffffffffffffffffffff1673ffffffffffffffffffffffffffffffffffffffff167faf7a1863671a8f6c36d7e2a2c5b80375b21bffe316b06d9a7cbd36f0bb004f5b600280015460026006015460405161041e9291906110d3565b60405180910390a25b5b610430610b5c565b5050565b61043c610b66565b4781111561047f576040517f08c379a000000000000000000000000000000000000000000000000000000000815260040161047690611159565b60405180910390fd5b61048761061a565b73ffffffffffffffffffffffffffffffffffffffff166108fc829081150290604051600060405180830381858888f193505050501580156104cc573d6000803e3d6000fd5b506104d561061a565b73ffffffffffffffffffffffffffffffffffffffff167f5fafa99d0643513820be26656b45130b01e1c03062e1266bf36f88cbd3bd96958260405161051a9190610f7a565b60405180910390a250565b60028060000160009054906101000a900473ffffffffffffffffffffffffffffffffffffffff16908060010160009054906101000a900473ffffffffffffffffffffffffffffffffffffffff16908060020154908060030154908060040154908060050154908060060154908060070160009054906101000a900460ff16905088565b60006060600260070160009054906101000a900460ff1680156105cf575060028001544710155b80156105e057506002600601544210155b91508160405180602001604052806000815250915091509250929050565b600047905090565b61060e610b66565b6106186000610be4565b565b6000600160009054906101000a900473ffffffffffffffffffffffffffffffffffffffff16905090565b61064c610b0d565b600260070160009054906101000a900460ff1661069e576040517f08c379a0000000000000000000000000000000000000000000000000000000008152600401610695906111c5565b60405180910390fd5b600260000160009054906101000a900473ffffffffffffffffffffffffffffffffffffffff1673ffffffffffffffffffffffffffffffffffffffff163373ffffffffffffffffffffffffffffffffffffffff1614610731576040517f08c379a000000000000000000000000000000000000000000000000000000000815260040161072890611231565b60405180910390fd5b3373ffffffffffffffffffffffffffffffffffffffff167fd15c9547ea5c06670c0010ce19bc32d54682a4b3801ece7f3ab0c3f17106b4bb346040516107779190610f7a565b60405180910390a2610787610b5c565b565b600073ffffffffffffffffffffffffffffffffffffffff168473ffffffffffffffffffffffffffffffffffffffff16036107f8576040517f08c379a00000000000000000000000000000000000000000000000000000000081526004016107ef9061129d565b60405180910390fd5b6000831161083b576040517f08c379a000000000000000000000000000000000000000000000000000000000815260040161083290611309565b60405180910390fd5b603c82101561087f576040517f08c379a000000000000000000000000000000000000000000000000000000000815260040161087690611375565b60405180910390fd5b8281116108c1576040517f08c379a00000000000000000000000000000000000000000000000000000000081526004016108b8906113e1565b60405180910390fd5b6040518061010001604052808573ffffffffffffffffffffffffffffffffffffffff1681526020013373ffffffffffffffffffffffffffffffffffffffff16815260200184815260200183815260200182815260200160008152602001834261092a919061109f565b815260200160011515815250600260008201518160000160006101000a81548173ffffffffffffffffffffffffffffffffffffffff021916908373ffffffffffffffffffffffffffffffffffffffff16021790555060208201518160010160006101000a81548173ffffffffffffffffffffffffffffffffffffffff021916908373ffffffffffffffffffffffffffffffffffffffff16021790555060408201518160020155606082015181600301556080820151816004015560a0820151816005015560c0820151816006015560e08201518160070160006101000a81548160ff0219169083151502179055509050503373ffffffffffffffffffffffffffffffffffffffff168473ffffffffffffffffffffffffffffffffffffffff167f41bdf00c0aa2fdb18b9bbb4e27d6806c81121d7b17508e48909e0ec15e72135c858585604051610a7c93929190611401565b60405180910390a350505050565b610a92610b66565b600073ffffffffffffffffffffffffffffffffffffffff168173ffffffffffffffffffffffffffffffffffffffff1603610b01576040517f08c379a0000000000000000000000000000000000000000000000000000000008152600401610af8906114aa565b60405180910390fd5b610b0a81610be4565b50565b600260005403610b52576040517f08c379a0000000000000000000000000000000000000000000000000000000008152600401610b4990611516565b60405180910390fd5b6002600081905550565b6001600081905550565b610b6e610caa565b73ffffffffffffffffffffffffffffffffffffffff16610b8c61061a565b73ffffffffffffffffffffffffffffffffffffffff1614610be2576040517f08c379a0000000000000000000000000000000000000000000000000000000008152600401610bd990611582565b60405180910390fd5b565b6000600160009054906101000a900473ffffffffffffffffffffffffffffffffffffffff16905081600160006101000a81548173ffffffffffffffffffffffffffffffffffffffff021916908373ffffffffffffffffffffffffffffffffffffffff1602179055508173ffffffffffffffffffffffffffffffffffffffff168173ffffffffffffffffffffffffffffffffffffffff167f8be0079c531659141344cd1fd0a4f28419497f9722a3daafe3b4186f6b6457e060405160405180910390a35050565b600033905090565b600080fd5b600080fd5b600080fd5b600080fd5b600080fd5b60008083601f840112610ce157610ce0610cbc565b5b8235905067ffffffffffffffff811115610cfe57610cfd610cc1565b5b602083019150836001820283011115610d1a57610d19610cc6565b5b9250929050565b60008060208385031215610d3857610d37610cb2565b5b600083013567ffffffffffffffff811115610d5657610d55610cb7565b5b610d6285828601610ccb565b92509250509250929050565b6000819050919050565b610d8181610d6e565b8114610d8c57600080fd5b50565b600081359050610d9e81610d78565b92915050565b600060208284031215610dba57610db9610cb2565b5b6000610dc884828501610d8f565b91505092915050565b600073ffffffffffffffffffffffffffffffffffffffff82169050919050565b6000610dfc82610dd1565b9050919050565b610e0c81610df1565b82525050565b610e1b81610d6e565b82525050565b60008115159050919050565b610e3681610e21565b82525050565b600061010082019050610e52600083018b610e03565b610e5f602083018a610e03565b610e6c6040830189610e12565b610e796060830188610e12565b610e866080830187610e12565b610e9360a0830186610e12565b610ea060c0830185610e12565b610ead60e0830184610e2d565b9998505050505050505050565b600081519050919050565b600082825260208201905092915050565b60005b83811015610ef4578082015181840152602081019050610ed9565b60008484015250505050565b6000601f19601f8301169050919050565b6000610f1c82610eba565b610f268185610ec5565b9350610f36818560208601610ed6565b610f3f81610f00565b840191505092915050565b6000604082019050610f5f6000830185610e2d565b8181036020830152610f718184610f11565b90509392505050565b6000602082019050610f8f6000830184610e12565b92915050565b6000602082019050610faa6000830184610e03565b92915050565b610fb981610df1565b8114610fc457600080fd5b50565b600081359050610fd681610fb0565b92915050565b60008060008060808587031215610ff657610ff5610cb2565b5b600061100487828801610fc7565b945050602061101587828801610d8f565b935050604061102687828801610d8f565b925050606061103787828801610d8f565b91505092959194509250565b60006020828403121561105957611058610cb2565b5b600061106784828501610fc7565b91505092915050565b7f4e487b7100000000000000000000000000000000000000000000000000000000600052601160045260246000fd5b60006110aa82610d6e565b91506110b583610d6e565b92508282019050808211156110cd576110cc611070565b5b92915050565b60006040820190506110e86000830185610e12565b6110f56020830184610e12565b9392505050565b600082825260208201905092915050565b7f496e73756666696369656e742062616c616e6365000000000000000000000000600082015250565b60006111436014836110fc565b915061114e8261110d565b602082019050919050565b6000602082019050818103600083015261117281611136565b9050919050565b7f506c616e206e6f74206163746976650000000000000000000000000000000000600082015250565b60006111af600f836110fc565b91506111ba82611179565b602082019050919050565b600060208201905081810360008301526111de816111a2565b9050919050565b7f4f6e6c792073656e6465722063616e206465706f736974000000000000000000600082015250565b600061121b6017836110fc565b9150611226826111e5565b602082019050919050565b6000602082019050818103600083015261124a8161120e565b9050919050565b7f496e76616c69642073656e646572000000000000000000000000000000000000600082015250565b6000611287600e836110fc565b915061129282611251565b602082019050919050565b600060208201905081810360008301526112b68161127a565b9050919050565b7f454d4920616d6f756e74206d757374206265203e203000000000000000000000600082015250565b60006112f36016836110fc565b91506112fe826112bd565b602082019050919050565b60006020820190508181036000830152611322816112e6565b9050919050565b7f496e74657276616c206d757374206265203e3d203630207365636f6e64730000600082015250565b600061135f601e836110fc565b915061136a82611329565b602082019050919050565b6000602082019050818103600083015261138e81611352565b9050919050565b7f546f74616c206d757374206265203e20454d4920616d6f756e74000000000000600082015250565b60006113cb601a836110fc565b91506113d682611395565b602082019050919050565b600060208201905081810360008301526113fa816113be565b9050919050565b60006060820190506114166000830186610e12565b6114236020830185610e12565b6114306040830184610e12565b949350505050565b7f4f776e61626c653a206e6577206f776e657220697320746865207a65726f206160008201527f6464726573730000000000000000000000000000000000000000000000000000602082015250565b60006114946026836110fc565b915061149f82611438565b604082019050919050565b600060208201905081810360008301526114c381611487565b9050919050565b7f5265656e7472616e637947756172643a207265656e7472616e742063616c6c00600082015250565b6000611500601f836110fc565b915061150b826114ca565b602082019050919050565b6000602082019050818103600083015261152f816114f3565b9050919050565b7f4f776e61626c653a2063616c6c6572206973206e6f7420746865206f776e6572600082015250565b600061156c6020836110fc565b915061157782611536565b602082019050919050565b6000602082019050818103600083015261159b8161155f565b905091905056fea26469706673582212203f42e84819ef0f44fbb877c34b764bb98698e18ff2087ccc48ec98521015881964736f6c63430008140033",
  "linkReferences": {},
  "deployedLinkReferences": {}
}