{
  "_format": "hh-sol-artifact-1",
  "contractName": "EmiAutoPay",
  "sourceName": "contracts/EmiAutoPay.sol",
  "abi": [
    {
      "anonymous": false,
      "inputs": [
        {
          "indexed": true,
          "internalType": "address",
          "name": "sender",
          "type": "address"
        },
        {
          "indexed": false,
          "internalType": "uint256",
          "name": "amount",
          "type": "uint256"
        }
      ],
      "name": "DepositMade",
      "type": "event"
    },
    {
      "anonymous": false,
      "inputs": [
        {
          "indexed": true,
          "internalType": "address",
          "name": "owner",
          "type": "address"
        },
        {
          "indexed": false,
          "internalType": "uint256",
          "name": "amount",
          "type": "uint256"
        }
      ],
      "name": "EmergencyWithdraw",
      "type": "event"
    },
    {
      "anonymous": false,
      "inputs": [
        {
          "indexed": true,
          "internalType": "address",
          "name": "receiver",
          "type": "address"
        }
      ],
      "name": "EmiCompleted",
      "type": "event"
    },
    {
      "anonymous": false,
      "inputs": [
        {
          "indexed": true,
          "internalType": "address",
          "name": "receiver",
          "type": "address"
        },
        {
          "indexed": false,
          "internalType": "uint256",
          "name": "amount",
          "type": "uint256"
        },
        {
          "indexed": false,
          "internalType": "uint256",
          "name": "nextPaymentTime",
          "type": "uint256"
        }
      ],
      "name": "EmiPaid",
      "type": "event"
    },
    {
      "anonymous": false,
      "inputs": [
        {
          "indexed": true,
          "internalType": "address",
          "name": "sender",
          "type": "address"
        },
        {
          "indexed": true,
          "internalType": "address",
          "name": "receiver",
          "type": "address"
        },
        {
          "indexed": false,
          "internalType": "string",
          "name": "senderNetwork",
          "type": "string"
        },
        {
          "indexed": false,
          "internalType": "uint256",
          "name": "emiAmount",
          "type": "uint256"
        },
        {
          "indexed": false,
          "internalType": "uint256",
          "name": "interval",
          "type": "uint256"
        },
        {
          "indexed": false,
          "internalType": "uint256",
          "name": "totalAmount",
          "type": "uint256"
        }
      ],
      "name": "EmiPlanCreated",
      "type": "event"
    },
    {
      "anonymous": false,
      "inputs": [
        {
          "indexed": true,
          "internalType": "address",
          "name": "previousOwner",
          "type": "address"
        },
        {
          "indexed": true,
          "internalType": "address",
          "name": "newOwner",
          "type": "address"
        }
      ],
      "name": "OwnershipTransferred",
      "type": "event"
    },
    {
      "inputs": [
        {
          "internalType": "bytes",
          "name": "",
          "type": "bytes"
        }
      ],
      "name": "checkUpkeep",
      "outputs": [
        {
          "internalType": "bool",
          "name": "upkeepNeeded",
          "type": "bool"
        },
        {
          "internalType": "bytes",
          "name": "",
          "type": "bytes"
        }
      ],
      "stateMutability": "view",
      "type": "function"
    },
    {
      "inputs": [
        {
          "internalType": "address",
          "name": "_sender",
          "type": "address"
        },
        {
          "internalType": "string",
          "name": "_senderNetwork",
          "type": "string"
        },
        {
          "internalType": "uint256",
          "name": "_emiAmount",
          "type": "uint256"
        },
        {
          "internalType": "uint256",
          "name": "_interval",
          "type": "uint256"
        },
        {
          "internalType": "uint256",
          "name": "_totalAmount",
          "type": "uint256"
        }
      ],
      "name": "createEmiPlan",
      "outputs": [],
      "stateMutability": "nonpayable",
      "type": "function"
    },
    {
      "inputs": [],
      "name": "depositFunds",
      "outputs": [],
      "stateMutability": "payable",
      "type": "function"
    },
    {
      "inputs": [
        {
          "internalType": "uint256",
          "name": "amount",
          "type": "uint256"
        }
      ],
      "name": "emergencyWithdraw",
      "outputs": [],
      "stateMutability": "nonpayable",
      "type": "function"
    },
    {
      "inputs": [],
      "name": "getContractBalance",
      "outputs": [
        {
          "internalType": "uint256",
          "name": "",
          "type": "uint256"
        }
      ],
      "stateMutability": "view",
      "type": "function"
    },
    {
      "inputs": [
        {
          "internalType": "address",
          "name": "_sender",
          "type": "address"
        }
      ],
      "name": "getSenderDeposit",
      "outputs": [
        {
          "internalType": "uint256",
          "name": "",
          "type": "uint256"
        }
      ],
      "stateMutability": "view",
      "type": "function"
    },
    {
      "inputs": [],
      "name": "owner",
      "outputs": [
        {
          "internalType": "address",
          "name": "",
          "type": "address"
        }
      ],
      "stateMutability": "view",
      "type": "function"
    },
    {
      "inputs": [
        {
          "internalType": "bytes",
          "name": "",
          "type": "bytes"
        }
      ],
      "name": "performUpkeep",
      "outputs": [],
      "stateMutability": "nonpayable",
      "type": "function"
    },
    {
      "inputs": [],
      "name": "plan",
      "outputs": [
        {
          "internalType": "address",
          "name": "sender",
          "type": "address"
        },
        {
          "internalType": "string",
          "name": "senderNetwork",
          "type": "string"
        },
        {
          "internalType": "address",
          "name": "receiver",
          "type": "address"
        },
        {
          "internalType": "uint256",
          "name": "emiAmount",
          "type": "uint256"
        },
        {
          "internalType": "uint256",
          "name": "interval",
          "type": "uint256"
        },
        {
          "internalType": "uint256",
          "name": "totalAmount",
          "type": "uint256"
        },
        {
          "internalType": "uint256",
          "name": "amountPaid",
          "type": "uint256"
        },
        {
          "internalType": "uint256",
          "name": "nextPaymentTime",
          "type": "uint256"
        },
        {
          "internalType": "bool",
          "name": "isActive",
          "type": "bool"
        }
      ],
      "stateMutability": "view",
      "type": "function"
    },
    {
      "inputs": [],
      "name": "renounceOwnership",
      "outputs": [],
      "stateMutability": "nonpayable",
      "type": "function"
    },
    {
      "inputs": [
        {
          "internalType": "address",
          "name": "",
          "type": "address"
        }
      ],
      "name": "senderDeposits",
      "outputs": [
        {
          "internalType": "uint256",
          "name": "",
          "type": "uint256"
        }
      ],
      "stateMutability": "view",
      "type": "function"
    },
    {
      "inputs": [
        {
          "internalType": "address",
          "name": "newOwner",
          "type": "address"
        }
      ],
      "name": "transferOwnership",
      "outputs": [],
      "stateMutability": "nonpayable",
      "type": "function"
    }
  ],
  "bytecode": "0x608060405234801561001057600080fd5b50600160008190555061003561002a61003a60201b60201c565b61004260201b60201c565b610108565b600033905090565b6000600160009054906101000a900473ffffffffffffffffffffffffffffffffffffffff16905081600160006101000a81548173ffffffffffffffffffffffffffffffffffffffff021916908373ffffffffffffffffffffffffffffffffffffffff1602179055508173ffffffffffffffffffffffffffffffffffffffff168173ffffffffffffffffffffffffffffffffffffffff167f8be0079c531659141344cd1fd0a4f28419497f9722a3daafe3b4186f6b6457e060405160405180910390a35050565b611c86806101176000396000f3fe6080604052600436106100a65760003560e01c80636f9fb98a116100645780636f9fb98a146101d4578063715018a6146101ff5780638da5cb5b14610216578063e2c41dbc14610241578063eb7d73031461024b578063f2fde38b14610288576100a6565b8062a1dd3e146100ab57806336a3294f146100d45780634585e33b146101115780635312ea8e1461013a57806353e06571146101635780636e04ff0d14610196575b600080fd5b3480156100b757600080fd5b506100d260048036038101906100cd9190611097565b6102b1565b005b3480156100e057600080fd5b506100fb60048036038101906100f6919061112e565b6105d2565b604051610108919061116a565b60405180910390f35b34801561011d57600080fd5b50610138600480360381019061013391906111e5565b6105ea565b005b34801561014657600080fd5b50610161600480360381019061015c9190611232565b6107fe565b005b34801561016f57600080fd5b506101786108ef565b60405161018d99989796959493929190611308565b60405180910390f35b3480156101a257600080fd5b506101bd60048036038101906101b891906111e5565b610a00565b6040516101cb9291906113f1565b60405180910390f35b3480156101e057600080fd5b506101e9610a57565b6040516101f6919061116a565b60405180910390f35b34801561020b57600080fd5b50610214610a5f565b005b34801561022257600080fd5b5061022b610a73565b6040516102389190611421565b60405180910390f35b610249610a9d565b005b34801561025757600080fd5b50610272600480360381019061026d919061112e565b610c38565b60405161027f919061116a565b60405180910390f35b34801561029457600080fd5b506102af60048036038101906102aa919061112e565b610c81565b005b600073ffffffffffffffffffffffffffffffffffffffff168573ffffffffffffffffffffffffffffffffffffffff1603610320576040517f08c379a000000000000000000000000000000000000000000000000000000000815260040161031790611488565b60405180910390fd5b60008311610363576040517f08c379a000000000000000000000000000000000000000000000000000000000815260040161035a906114f4565b60405180910390fd5b603c8210156103a7576040517f08c379a000000000000000000000000000000000000000000000000000000000815260040161039e90611560565b60405180910390fd5b8281116103e9576040517f08c379a00000000000000000000000000000000000000000000000000000000081526004016103e0906115cc565b60405180910390fd5b6040518061012001604052808673ffffffffffffffffffffffffffffffffffffffff1681526020018581526020013373ffffffffffffffffffffffffffffffffffffffff168152602001848152602001838152602001828152602001600081526020018342610458919061161b565b815260200160011515815250600260008201518160000160006101000a81548173ffffffffffffffffffffffffffffffffffffffff021916908373ffffffffffffffffffffffffffffffffffffffff16021790555060208201518160010190816104c2919061185b565b5060408201518160020160006101000a81548173ffffffffffffffffffffffffffffffffffffffff021916908373ffffffffffffffffffffffffffffffffffffffff160217905550606082015181600301556080820151816004015560a0820151816005015560c0820151816006015560e082015181600701556101008201518160080160006101000a81548160ff0219169083151502179055509050503373ffffffffffffffffffffffffffffffffffffffff168573ffffffffffffffffffffffffffffffffffffffff167f4afb367e4704341e193fbfc7471fba9baff5a8ff3be93fd45b8eed4323021a5b868686866040516105c3949392919061192d565b60405180910390a35050505050565b600b6020528060005260406000206000915090505481565b6105f2610d04565b600260080160009054906101000a900460ff16801561061657506002600301544710155b801561062757506002600701544210155b156107f1576002800160009054906101000a900473ffffffffffffffffffffffffffffffffffffffff1673ffffffffffffffffffffffffffffffffffffffff166108fc6002600301549081150290604051600060405180830381858888f1935050505015801561069b573d6000803e3d6000fd5b50600260030154600260060160008282546106b6919061161b565b9250508190555060026005015460026006015410610758576000600260080160006101000a81548160ff0219169083151502179055506002800160009054906101000a900473ffffffffffffffffffffffffffffffffffffffff1673ffffffffffffffffffffffffffffffffffffffff167f209d75a7c13fb985ae4710a4c74a4d6886d9de5c7dc6e3a98959de78fb2dc30e60405160405180910390a26107f2565b60026004015442610769919061161b565b6002600701819055506002800160009054906101000a900473ffffffffffffffffffffffffffffffffffffffff1673ffffffffffffffffffffffffffffffffffffffff167faf7a1863671a8f6c36d7e2a2c5b80375b21bffe316b06d9a7cbd36f0bb004f5b6002600301546002600701546040516107e8929190611979565b60405180910390a25b5b6107fa610d53565b5050565b610806610d5d565b47811115610849576040517f08c379a0000000000000000000000000000000000000000000000000000000008152600401610840906119ee565b60405180910390fd5b610851610a73565b73ffffffffffffffffffffffffffffffffffffffff166108fc829081150290604051600060405180830381858888f19350505050158015610896573d6000803e3d6000fd5b5061089f610a73565b73ffffffffffffffffffffffffffffffffffffffff167f5fafa99d0643513820be26656b45130b01e1c03062e1266bf36f88cbd3bd9695826040516108e4919061116a565b60405180910390a250565b60028060000160009054906101000a900473ffffffffffffffffffffffffffffffffffffffff16908060010180546109269061167e565b80601f01602080910402602001604051908101604052809291908181526020018280546109529061167e565b801561099f5780601f106109745761010080835404028352916020019161099f565b820191906000526020600020905b81548152906001019060200180831161098257829003601f168201915b5050505050908060020160009054906101000a900473ffffffffffffffffffffffffffffffffffffffff16908060030154908060040154908060050154908060060154908060070154908060080160009054906101000a900460ff16905089565b60006060600260080160009054906101000a900460ff168015610a2857506002600301544710155b8015610a3957506002600701544210155b91508160405180602001604052806000815250915091509250929050565b600047905090565b610a67610d5d565b610a716000610ddb565b565b6000600160009054906101000a900473ffffffffffffffffffffffffffffffffffffffff16905090565b610aa5610d04565b600260080160009054906101000a900460ff16610af7576040517f08c379a0000000000000000000000000000000000000000000000000000000008152600401610aee90611a5a565b60405180910390fd5b600260000160009054906101000a900473ffffffffffffffffffffffffffffffffffffffff1673ffffffffffffffffffffffffffffffffffffffff163373ffffffffffffffffffffffffffffffffffffffff1614610b8a576040517f08c379a0000000000000000000000000000000000000000000000000000000008152600401610b8190611ac6565b60405180910390fd5b34600b60003373ffffffffffffffffffffffffffffffffffffffff1673ffffffffffffffffffffffffffffffffffffffff1681526020019081526020016000206000828254610bd9919061161b565b925050819055503373ffffffffffffffffffffffffffffffffffffffff167fd15c9547ea5c06670c0010ce19bc32d54682a4b3801ece7f3ab0c3f17106b4bb34604051610c26919061116a565b60405180910390a2610c36610d53565b565b6000600b60008373ffffffffffffffffffffffffffffffffffffffff1673ffffffffffffffffffffffffffffffffffffffff168152602001908152602001600020549050919050565b610c89610d5d565b600073ffffffffffffffffffffffffffffffffffffffff168173ffffffffffffffffffffffffffffffffffffffff1603610cf8576040517f08c379a0000000000000000000000000000000000000000000000000000000008152600401610cef90611b58565b60405180910390fd5b610d0181610ddb565b50565b600260005403610d49576040517f08c379a0000000000000000000000000000000000000000000000000000000008152600401610d4090611bc4565b60405180910390fd5b6002600081905550565b6001600081905550565b610d65610ea1565b73ffffffffffffffffffffffffffffffffffffffff16610d83610a73565b73ffffffffffffffffffffffffffffffffffffffff1614610dd9576040517f08c379a0000000000000000000000000000000000000000000000000000000008152600401610dd090611c30565b60405180910390fd5b565b6000600160009054906101000a900473ffffffffffffffffffffffffffffffffffffffff16905081600160006101000a81548173ffffffffffffffffffffffffffffffffffffffff021916908373ffffffffffffffffffffffffffffffffffffffff1602179055508173ffffffffffffffffffffffffffffffffffffffff168173ffffffffffffffffffffffffffffffffffffffff167f8be0079c531659141344cd1fd0a4f28419497f9722a3daafe3b4186f6b6457e060405160405180910390a35050565b600033905090565b6000604051905090565b600080fd5b600080fd5b600073ffffffffffffffffffffffffffffffffffffffff82169050919050565b6000610ee882610ebd565b9050919050565b610ef881610edd565b8114610f0357600080fd5b50565b600081359050610f1581610eef565b92915050565b600080fd5b600080fd5b6000601f19601f8301169050919050565b7f4e487b7100000000000000000000000000000000000000000000000000000000600052604160045260246000fd5b610f6e82610f25565b810181811067ffffffffffffffff82111715610f8d57610f8c610f36565b5b80604052505050565b6000610fa0610ea9565b9050610fac8282610f65565b919050565b600067ffffffffffffffff821115610fcc57610fcb610f36565b5b610fd582610f25565b9050602081019050919050565b82818337600083830152505050565b6000611004610fff84610fb1565b610f96565b9050828152602081018484840111156110205761101f610f20565b5b61102b848285610fe2565b509392505050565b600082601f83011261104857611047610f1b565b5b8135611058848260208601610ff1565b91505092915050565b6000819050919050565b61107481611061565b811461107f57600080fd5b50565b6000813590506110918161106b565b92915050565b600080600080600060a086880312156110b3576110b2610eb3565b5b60006110c188828901610f06565b955050602086013567ffffffffffffffff8111156110e2576110e1610eb8565b5b6110ee88828901611033565b94505060406110ff88828901611082565b935050606061111088828901611082565b925050608061112188828901611082565b9150509295509295909350565b60006020828403121561114457611143610eb3565b5b600061115284828501610f06565b91505092915050565b61116481611061565b82525050565b600060208201905061117f600083018461115b565b92915050565b600080fd5b600080fd5b60008083601f8401126111a5576111a4610f1b565b5b8235905067ffffffffffffffff8111156111c2576111c1611185565b5b6020830191508360018202830111156111de576111dd61118a565b5b9250929050565b600080602083850312156111fc576111fb610eb3565b5b600083013567ffffffffffffffff81111561121a57611219610eb8565b5b6112268582860161118f565b92509250509250929050565b60006020828403121561124857611247610eb3565b5b600061125684828501611082565b91505092915050565b61126881610edd565b82525050565b600081519050919050565b600082825260208201905092915050565b60005b838110156112a857808201518184015260208101905061128d565b60008484015250505050565b60006112bf8261126e565b6112c98185611279565b93506112d981856020860161128a565b6112e281610f25565b840191505092915050565b60008115159050919050565b611302816112ed565b82525050565b60006101208201905061131e600083018c61125f565b8181036020830152611330818b6112b4565b905061133f604083018a61125f565b61134c606083018961115b565b611359608083018861115b565b61136660a083018761115b565b61137360c083018661115b565b61138060e083018561115b565b61138e6101008301846112f9565b9a9950505050505050505050565b600081519050919050565b600082825260208201905092915050565b60006113c38261139c565b6113cd81856113a7565b93506113dd81856020860161128a565b6113e681610f25565b840191505092915050565b600060408201905061140660008301856112f9565b818103602083015261141881846113b8565b90509392505050565b6000602082019050611436600083018461125f565b92915050565b7f496e76616c69642073656e646572000000000000000000000000000000000000600082015250565b6000611472600e83611279565b915061147d8261143c565b602082019050919050565b600060208201905081810360008301526114a181611465565b9050919050565b7f454d4920616d6f756e74206d757374206265203e203000000000000000000000600082015250565b60006114de601683611279565b91506114e9826114a8565b602082019050919050565b6000602082019050818103600083015261150d816114d1565b9050919050565b7f496e74657276616c206d757374206265203e3d203630207365636f6e64730000600082015250565b600061154a601e83611279565b915061155582611514565b602082019050919050565b600060208201905081810360008301526115798161153d565b9050919050565b7f546f74616c206d757374206265203e20454d4920616d6f756e74000000000000600082015250565b60006115b6601a83611279565b91506115c182611580565b602082019050919050565b600060208201905081810360008301526115e5816115a9565b9050919050565b7f4e487b7100000000000000000000000000000000000000000000000000000000600052601160045260246000fd5b600061162682611061565b915061163183611061565b9250828201905080821115611649576116486115ec565b5b92915050565b7f4e487b7100000000000000000000000000000000000000000000000000000000600052602260045260246000fd5b6000600282049050600182168061169657607f821691505b6020821081036116a9576116a861164f565b5b50919050565b60008190508160005260206000209050919050565b60006020601f8301049050919050565b600082821b905092915050565b6000600883026117117fffffffffffffffffffffffffffffffffffffffffffffffffffffffffffffffff826116d4565b61171b86836116d4565b95508019841693508086168417925050509392505050565b6000819050919050565b600061175861175361174e84611061565b611733565b611061565b9050919050565b6000819050919050565b6117728361173d565b61178661177e8261175f565b8484546116e1565b825550505050565b600090565b61179b61178e565b6117a6818484611769565b505050565b5b818110156117ca576117bf600082611793565b6001810190506117ac565b5050565b601f82111561180f576117e0816116af565b6117e9846116c4565b810160208510156117f8578190505b61180c611804856116c4565b8301826117ab565b50505b505050565b600082821c905092915050565b600061183260001984600802611814565b1980831691505092915050565b600061184b8383611821565b9150826002028217905092915050565b6118648261126e565b67ffffffffffffffff81111561187d5761187c610f36565b5b611887825461167e565b6118928282856117ce565b600060209050601f8311600181146118c557600084156118b3578287015190505b6118bd858261183f565b865550611925565b601f1984166118d3866116af565b60005b828110156118fb578489015182556001820191506020850194506020810190506118d6565b868310156119185784890151611914601f891682611821565b8355505b6001600288020188555050505b505050505050565b6000608082019050818103600083015261194781876112b4565b9050611956602083018661115b565b611963604083018561115b565b611970606083018461115b565b95945050505050565b600060408201905061198e600083018561115b565b61199b602083018461115b565b9392505050565b7f496e73756666696369656e742062616c616e6365000000000000000000000000600082015250565b60006119d8601483611279565b91506119e3826119a2565b602082019050919050565b60006020820190508181036000830152611a07816119cb565b9050919050565b7f506c616e206e6f74206163746976650000000000000000000000000000000000600082015250565b6000611a44600f83611279565b9150611a4f82611a0e565b602082019050919050565b60006020820190508181036000830152611a7381611a37565b9050919050565b7f4f6e6c792073656e6465722063616e206465706f736974000000000000000000600082015250565b6000611ab0601783611279565b9150611abb82611a7a565b602082019050919050565b60006020820190508181036000830152611adf81611aa3565b9050919050565b7f4f776e61626c653a206e6577206f776e657220697320746865207a65726f206160008201527f6464726573730000000000000000000000000000000000000000000000000000602082015250565b6000611b42602683611279565b9150611b4d82611ae6565b604082019050919050565b60006020820190508181036000830152611b7181611b35565b9050919050565b7f5265656e7472616e637947756172643a207265656e7472616e742063616c6c00600082015250565b6000611bae601f83611279565b9150611bb982611b78565b602082019050919050565b60006020820190508181036000830152611bdd81611ba1565b9050919050565b7f4f776e61626c653a2063616c6c6572206973206e6f7420746865206f776e6572600082015250565b6000611c1a602083611279565b9150611c2582611be4565b602082019050919050565b60006020820190508181036000830152611c4981611c0d565b905091905056fea26469706673582212204be57a9f82e3b82c26f5c639f4bb10bb5d463c5e94324cb0339f94a2e4fa48dd64736f6c63430008140033",
  "linkReferences": {},
  "deployedLinkReferences": {}
}