{
  "_format": "hh-sol-artifact-1",
  "contractName": "EmiAutoPay",
  "sourceName": "contracts/EmiAutoPay.sol",
  "abi": [
    {
      "anonymous": false,
      "inputs": [
        {
          "indexed": true,
          "internalType": "address",
          "name": "sender",
          "type": "address"
        },
        {
          "indexed": false,
          "internalType": "uint256",
          "name": "amount",
          "type": "uint256"
        }
      ],
      "name": "DepositMade",
      "type": "event"
    },
    {
      "anonymous": false,
      "inputs": [
        {
          "indexed": true,
          "internalType": "address",
          "name": "owner",
          "type": "address"
        },
        {
          "indexed": false,
          "internalType": "uint256",
          "name": "amount",
          "type": "uint256"
        }
      ],
      "name": "EmergencyWithdraw",
      "type": "event"
    },
    {
      "anonymous": false,
      "inputs": [
        {
          "indexed": true,
          "internalType": "address",
          "name": "receiver",
          "type": "address"
        }
      ],
      "name": "EmiCompleted",
      "type": "event"
    },
    {
      "anonymous": false,
      "inputs": [
        {
          "indexed": true,
          "internalType": "address",
          "name": "receiver",
          "type": "address"
        },
        {
          "indexed": false,
          "internalType": "uint256",
          "name": "amount",
          "type": "uint256"
        },
        {
          "indexed": false,
          "internalType": "uint256",
          "name": "nextPaymentTime",
          "type": "uint256"
        }
      ],
      "name": "EmiPaid",
      "type": "event"
    },
    {
      "anonymous": false,
      "inputs": [
        {
          "indexed": true,
          "internalType": "address",
          "name": "sender",
          "type": "address"
        },
        {
          "indexed": true,
          "internalType": "address",
          "name": "receiver",
          "type": "address"
        },
        {
          "indexed": false,
          "internalType": "string",
          "name": "senderNetwork",
          "type": "string"
        },
        {
          "indexed": false,
          "internalType": "uint256",
          "name": "emiAmount",
          "type": "uint256"
        },
        {
          "indexed": false,
          "internalType": "uint256",
          "name": "interval",
          "type": "uint256"
        },
        {
          "indexed": false,
          "internalType": "uint256",
          "name": "totalAmount",
          "type": "uint256"
        }
      ],
      "name": "EmiPlanCreated",
      "type": "event"
    },
    {
      "anonymous": false,
      "inputs": [
        {
          "indexed": true,
          "internalType": "address",
          "name": "previousOwner",
          "type": "address"
        },
        {
          "indexed": true,
          "internalType": "address",
          "name": "newOwner",
          "type": "address"
        }
      ],
      "name": "OwnershipTransferred",
      "type": "event"
    },
    {
      "inputs": [
        {
          "internalType": "bytes",
          "name": "",
          "type": "bytes"
        }
      ],
      "name": "checkUpkeep",
      "outputs": [
        {
          "internalType": "bool",
          "name": "upkeepNeeded",
          "type": "bool"
        },
        {
          "internalType": "bytes",
          "name": "",
          "type": "bytes"
        }
      ],
      "stateMutability": "view",
      "type": "function"
    },
    {
      "inputs": [
        {
          "internalType": "address",
          "name": "_sender",
          "type": "address"
        },
        {
          "internalType": "string",
          "name": "_senderNetwork",
          "type": "string"
        },
        {
          "internalType": "uint256",
          "name": "_emiAmount",
          "type": "uint256"
        },
        {
          "internalType": "uint256",
          "name": "_interval",
          "type": "uint256"
        },
        {
          "internalType": "uint256",
          "name": "_totalAmount",
          "type": "uint256"
        }
      ],
      "name": "createEmiPlan",
      "outputs": [],
      "stateMutability": "nonpayable",
      "type": "function"
    },
    {
      "inputs": [],
      "name": "depositFunds",
      "outputs": [],
      "stateMutability": "payable",
      "type": "function"
    },
    {
      "inputs": [
        {
          "internalType": "uint256",
          "name": "amount",
          "type": "uint256"
        }
      ],
      "name": "emergencyWithdraw",
      "outputs": [],
      "stateMutability": "nonpayable",
      "type": "function"
    },
    {
      "inputs": [],
      "name": "getContractBalance",
      "outputs": [
        {
          "internalType": "uint256",
          "name": "",
          "type": "uint256"
        }
      ],
      "stateMutability": "view",
      "type": "function"
    },
    {
      "inputs": [],
      "name": "owner",
      "outputs": [
        {
          "internalType": "address",
          "name": "",
          "type": "address"
        }
      ],
      "stateMutability": "view",
      "type": "function"
    },
    {
      "inputs": [
        {
          "internalType": "bytes",
          "name": "",
          "type": "bytes"
        }
      ],
      "name": "performUpkeep",
      "outputs": [],
      "stateMutability": "nonpayable",
      "type": "function"
    },
    {
      "inputs": [],
      "name": "plan",
      "outputs": [
        {
          "internalType": "address",
          "name": "sender",
          "type": "address"
        },
        {
          "internalType": "string",
          "name": "senderNetwork",
          "type": "string"
        },
        {
          "internalType": "address",
          "name": "receiver",
          "type": "address"
        },
        {
          "internalType": "uint256",
          "name": "emiAmount",
          "type": "uint256"
        },
        {
          "internalType": "uint256",
          "name": "interval",
          "type": "uint256"
        },
        {
          "internalType": "uint256",
          "name": "totalAmount",
          "type": "uint256"
        },
        {
          "internalType": "uint256",
          "name": "amountPaid",
          "type": "uint256"
        },
        {
          "internalType": "uint256",
          "name": "nextPaymentTime",
          "type": "uint256"
        },
        {
          "internalType": "bool",
          "name": "isActive",
          "type": "bool"
        }
      ],
      "stateMutability": "view",
      "type": "function"
    },
    {
      "inputs": [],
      "name": "renounceOwnership",
      "outputs": [],
      "stateMutability": "nonpayable",
      "type": "function"
    },
    {
      "inputs": [
        {
          "internalType": "address",
          "name": "newOwner",
          "type": "address"
        }
      ],
      "name": "transferOwnership",
      "outputs": [],
      "stateMutability": "nonpayable",
      "type": "function"
    }
  ],
  "bytecode": "0x608060405234801561001057600080fd5b50600160008190555061003561002a61003a60201b60201c565b61004260201b60201c565b610108565b600033905090565b6000600160009054906101000a900473ffffffffffffffffffffffffffffffffffffffff16905081600160006101000a81548173ffffffffffffffffffffffffffffffffffffffff021916908373ffffffffffffffffffffffffffffffffffffffff1602179055508173ffffffffffffffffffffffffffffffffffffffff168173ffffffffffffffffffffffffffffffffffffffff167f8be0079c531659141344cd1fd0a4f28419497f9722a3daafe3b4186f6b6457e060405160405180910390a35050565b611b3f806101176000396000f3fe6080604052600436106100905760003560e01c80636f9fb98a116100595780636f9fb98a14610181578063715018a6146101ac5780638da5cb5b146101c3578063e2c41dbc146101ee578063f2fde38b146101f857610090565b8062a1dd3e146100955780634585e33b146100be5780635312ea8e146100e757806353e06571146101105780636e04ff0d14610143575b600080fd5b3480156100a157600080fd5b506100bc60048036038101906100b79190610f50565b610221565b005b3480156100ca57600080fd5b506100e560048036038101906100e09190611047565b610542565b005b3480156100f357600080fd5b5061010e60048036038101906101099190611094565b610756565b005b34801561011c57600080fd5b50610125610847565b60405161013a99989796959493929190611179565b60405180910390f35b34801561014f57600080fd5b5061016a60048036038101906101659190611047565b610958565b604051610178929190611262565b60405180910390f35b34801561018d57600080fd5b506101966109af565b6040516101a39190611292565b60405180910390f35b3480156101b857600080fd5b506101c16109b7565b005b3480156101cf57600080fd5b506101d86109cb565b6040516101e591906112ad565b60405180910390f35b6101f66109f5565b005b34801561020457600080fd5b5061021f600480360381019061021a91906112c8565b610b3a565b005b600073ffffffffffffffffffffffffffffffffffffffff168573ffffffffffffffffffffffffffffffffffffffff1603610290576040517f08c379a000000000000000000000000000000000000000000000000000000000815260040161028790611341565b60405180910390fd5b600083116102d3576040517f08c379a00000000000000000000000000000000000000000000000000000000081526004016102ca906113ad565b60405180910390fd5b603c821015610317576040517f08c379a000000000000000000000000000000000000000000000000000000000815260040161030e90611419565b60405180910390fd5b828111610359576040517f08c379a000000000000000000000000000000000000000000000000000000000815260040161035090611485565b60405180910390fd5b6040518061012001604052808673ffffffffffffffffffffffffffffffffffffffff1681526020018581526020013373ffffffffffffffffffffffffffffffffffffffff1681526020018481526020018381526020018281526020016000815260200183426103c891906114d4565b815260200160011515815250600260008201518160000160006101000a81548173ffffffffffffffffffffffffffffffffffffffff021916908373ffffffffffffffffffffffffffffffffffffffff16021790555060208201518160010190816104329190611714565b5060408201518160020160006101000a81548173ffffffffffffffffffffffffffffffffffffffff021916908373ffffffffffffffffffffffffffffffffffffffff160217905550606082015181600301556080820151816004015560a0820151816005015560c0820151816006015560e082015181600701556101008201518160080160006101000a81548160ff0219169083151502179055509050503373ffffffffffffffffffffffffffffffffffffffff168573ffffffffffffffffffffffffffffffffffffffff167f4afb367e4704341e193fbfc7471fba9baff5a8ff3be93fd45b8eed4323021a5b8686868660405161053394939291906117e6565b60405180910390a35050505050565b61054a610bbd565b600260080160009054906101000a900460ff16801561056e57506002600301544710155b801561057f57506002600701544210155b15610749576002800160009054906101000a900473ffffffffffffffffffffffffffffffffffffffff1673ffffffffffffffffffffffffffffffffffffffff166108fc6002600301549081150290604051600060405180830381858888f193505050501580156105f3573d6000803e3d6000fd5b506002600301546002600601600082825461060e91906114d4565b92505081905550600260050154600260060154106106b0576000600260080160006101000a81548160ff0219169083151502179055506002800160009054906101000a900473ffffffffffffffffffffffffffffffffffffffff1673ffffffffffffffffffffffffffffffffffffffff167f209d75a7c13fb985ae4710a4c74a4d6886d9de5c7dc6e3a98959de78fb2dc30e60405160405180910390a261074a565b600260040154426106c191906114d4565b6002600701819055506002800160009054906101000a900473ffffffffffffffffffffffffffffffffffffffff1673ffffffffffffffffffffffffffffffffffffffff167faf7a1863671a8f6c36d7e2a2c5b80375b21bffe316b06d9a7cbd36f0bb004f5b600260030154600260070154604051610740929190611832565b60405180910390a25b5b610752610c0c565b5050565b61075e610c16565b478111156107a1576040517f08c379a0000000000000000000000000000000000000000000000000000000008152600401610798906118a7565b60405180910390fd5b6107a96109cb565b73ffffffffffffffffffffffffffffffffffffffff166108fc829081150290604051600060405180830381858888f193505050501580156107ee573d6000803e3d6000fd5b506107f76109cb565b73ffffffffffffffffffffffffffffffffffffffff167f5fafa99d0643513820be26656b45130b01e1c03062e1266bf36f88cbd3bd96958260405161083c9190611292565b60405180910390a250565b60028060000160009054906101000a900473ffffffffffffffffffffffffffffffffffffffff169080600101805461087e90611537565b80601f01602080910402602001604051908101604052809291908181526020018280546108aa90611537565b80156108f75780601f106108cc576101008083540402835291602001916108f7565b820191906000526020600020905b8154815290600101906020018083116108da57829003601f168201915b5050505050908060020160009054906101000a900473ffffffffffffffffffffffffffffffffffffffff16908060030154908060040154908060050154908060060154908060070154908060080160009054906101000a900460ff16905089565b60006060600260080160009054906101000a900460ff16801561098057506002600301544710155b801561099157506002600701544210155b91508160405180602001604052806000815250915091509250929050565b600047905090565b6109bf610c16565b6109c96000610c94565b565b6000600160009054906101000a900473ffffffffffffffffffffffffffffffffffffffff16905090565b6109fd610bbd565b600260080160009054906101000a900460ff16610a4f576040517f08c379a0000000000000000000000000000000000000000000000000000000008152600401610a4690611913565b60405180910390fd5b600260000160009054906101000a900473ffffffffffffffffffffffffffffffffffffffff1673ffffffffffffffffffffffffffffffffffffffff163373ffffffffffffffffffffffffffffffffffffffff1614610ae2576040517f08c379a0000000000000000000000000000000000000000000000000000000008152600401610ad99061197f565b60405180910390fd5b3373ffffffffffffffffffffffffffffffffffffffff167fd15c9547ea5c06670c0010ce19bc32d54682a4b3801ece7f3ab0c3f17106b4bb34604051610b289190611292565b60405180910390a2610b38610c0c565b565b610b42610c16565b600073ffffffffffffffffffffffffffffffffffffffff168173ffffffffffffffffffffffffffffffffffffffff1603610bb1576040517f08c379a0000000000000000000000000000000000000000000000000000000008152600401610ba890611a11565b60405180910390fd5b610bba81610c94565b50565b600260005403610c02576040517f08c379a0000000000000000000000000000000000000000000000000000000008152600401610bf990611a7d565b60405180910390fd5b6002600081905550565b6001600081905550565b610c1e610d5a565b73ffffffffffffffffffffffffffffffffffffffff16610c3c6109cb565b73ffffffffffffffffffffffffffffffffffffffff1614610c92576040517f08c379a0000000000000000000000000000000000000000000000000000000008152600401610c8990611ae9565b60405180910390fd5b565b6000600160009054906101000a900473ffffffffffffffffffffffffffffffffffffffff16905081600160006101000a81548173ffffffffffffffffffffffffffffffffffffffff021916908373ffffffffffffffffffffffffffffffffffffffff1602179055508173ffffffffffffffffffffffffffffffffffffffff168173ffffffffffffffffffffffffffffffffffffffff167f8be0079c531659141344cd1fd0a4f28419497f9722a3daafe3b4186f6b6457e060405160405180910390a35050565b600033905090565b6000604051905090565b600080fd5b600080fd5b600073ffffffffffffffffffffffffffffffffffffffff82169050919050565b6000610da182610d76565b9050919050565b610db181610d96565b8114610dbc57600080fd5b50565b600081359050610dce81610da8565b92915050565b600080fd5b600080fd5b6000601f19601f8301169050919050565b7f4e487b7100000000000000000000000000000000000000000000000000000000600052604160045260246000fd5b610e2782610dde565b810181811067ffffffffffffffff82111715610e4657610e45610def565b5b80604052505050565b6000610e59610d62565b9050610e658282610e1e565b919050565b600067ffffffffffffffff821115610e8557610e84610def565b5b610e8e82610dde565b9050602081019050919050565b82818337600083830152505050565b6000610ebd610eb884610e6a565b610e4f565b905082815260208101848484011115610ed957610ed8610dd9565b5b610ee4848285610e9b565b509392505050565b600082601f830112610f0157610f00610dd4565b5b8135610f11848260208601610eaa565b91505092915050565b6000819050919050565b610f2d81610f1a565b8114610f3857600080fd5b50565b600081359050610f4a81610f24565b92915050565b600080600080600060a08688031215610f6c57610f6b610d6c565b5b6000610f7a88828901610dbf565b955050602086013567ffffffffffffffff811115610f9b57610f9a610d71565b5b610fa788828901610eec565b9450506040610fb888828901610f3b565b9350506060610fc988828901610f3b565b9250506080610fda88828901610f3b565b9150509295509295909350565b600080fd5b600080fd5b60008083601f84011261100757611006610dd4565b5b8235905067ffffffffffffffff81111561102457611023610fe7565b5b6020830191508360018202830111156110405761103f610fec565b5b9250929050565b6000806020838503121561105e5761105d610d6c565b5b600083013567ffffffffffffffff81111561107c5761107b610d71565b5b61108885828601610ff1565b92509250509250929050565b6000602082840312156110aa576110a9610d6c565b5b60006110b884828501610f3b565b91505092915050565b6110ca81610d96565b82525050565b600081519050919050565b600082825260208201905092915050565b60005b8381101561110a5780820151818401526020810190506110ef565b60008484015250505050565b6000611121826110d0565b61112b81856110db565b935061113b8185602086016110ec565b61114481610dde565b840191505092915050565b61115881610f1a565b82525050565b60008115159050919050565b6111738161115e565b82525050565b60006101208201905061118f600083018c6110c1565b81810360208301526111a1818b611116565b90506111b0604083018a6110c1565b6111bd606083018961114f565b6111ca608083018861114f565b6111d760a083018761114f565b6111e460c083018661114f565b6111f160e083018561114f565b6111ff61010083018461116a565b9a9950505050505050505050565b600081519050919050565b600082825260208201905092915050565b60006112348261120d565b61123e8185611218565b935061124e8185602086016110ec565b61125781610dde565b840191505092915050565b6000604082019050611277600083018561116a565b81810360208301526112898184611229565b90509392505050565b60006020820190506112a7600083018461114f565b92915050565b60006020820190506112c260008301846110c1565b92915050565b6000602082840312156112de576112dd610d6c565b5b60006112ec84828501610dbf565b91505092915050565b7f496e76616c69642073656e646572000000000000000000000000000000000000600082015250565b600061132b600e836110db565b9150611336826112f5565b602082019050919050565b6000602082019050818103600083015261135a8161131e565b9050919050565b7f454d4920616d6f756e74206d757374206265203e203000000000000000000000600082015250565b60006113976016836110db565b91506113a282611361565b602082019050919050565b600060208201905081810360008301526113c68161138a565b9050919050565b7f496e74657276616c206d757374206265203e3d203630207365636f6e64730000600082015250565b6000611403601e836110db565b915061140e826113cd565b602082019050919050565b60006020820190508181036000830152611432816113f6565b9050919050565b7f546f74616c206d757374206265203e20454d4920616d6f756e74000000000000600082015250565b600061146f601a836110db565b915061147a82611439565b602082019050919050565b6000602082019050818103600083015261149e81611462565b9050919050565b7f4e487b7100000000000000000000000000000000000000000000000000000000600052601160045260246000fd5b60006114df82610f1a565b91506114ea83610f1a565b9250828201905080821115611502576115016114a5565b5b92915050565b7f4e487b7100000000000000000000000000000000000000000000000000000000600052602260045260246000fd5b6000600282049050600182168061154f57607f821691505b60208210810361156257611561611508565b5b50919050565b60008190508160005260206000209050919050565b60006020601f8301049050919050565b600082821b905092915050565b6000600883026115ca7fffffffffffffffffffffffffffffffffffffffffffffffffffffffffffffffff8261158d565b6115d4868361158d565b95508019841693508086168417925050509392505050565b6000819050919050565b600061161161160c61160784610f1a565b6115ec565b610f1a565b9050919050565b6000819050919050565b61162b836115f6565b61163f61163782611618565b84845461159a565b825550505050565b600090565b611654611647565b61165f818484611622565b505050565b5b818110156116835761167860008261164c565b600181019050611665565b5050565b601f8211156116c85761169981611568565b6116a28461157d565b810160208510156116b1578190505b6116c56116bd8561157d565b830182611664565b50505b505050565b600082821c905092915050565b60006116eb600019846008026116cd565b1980831691505092915050565b600061170483836116da565b9150826002028217905092915050565b61171d826110d0565b67ffffffffffffffff81111561173657611735610def565b5b6117408254611537565b61174b828285611687565b600060209050601f83116001811461177e576000841561176c578287015190505b61177685826116f8565b8655506117de565b601f19841661178c86611568565b60005b828110156117b45784890151825560018201915060208501945060208101905061178f565b868310156117d157848901516117cd601f8916826116da565b8355505b6001600288020188555050505b505050505050565b600060808201905081810360008301526118008187611116565b905061180f602083018661114f565b61181c604083018561114f565b611829606083018461114f565b95945050505050565b6000604082019050611847600083018561114f565b611854602083018461114f565b9392505050565b7f496e73756666696369656e742062616c616e6365000000000000000000000000600082015250565b60006118916014836110db565b915061189c8261185b565b602082019050919050565b600060208201905081810360008301526118c081611884565b9050919050565b7f506c616e206e6f74206163746976650000000000000000000000000000000000600082015250565b60006118fd600f836110db565b9150611908826118c7565b602082019050919050565b6000602082019050818103600083015261192c816118f0565b9050919050565b7f4f6e6c792073656e6465722063616e206465706f736974000000000000000000600082015250565b60006119696017836110db565b915061197482611933565b602082019050919050565b600060208201905081810360008301526119988161195c565b9050919050565b7f4f776e61626c653a206e6577206f776e657220697320746865207a65726f206160008201527f6464726573730000000000000000000000000000000000000000000000000000602082015250565b60006119fb6026836110db565b9150611a068261199f565b604082019050919050565b60006020820190508181036000830152611a2a816119ee565b9050919050565b7f5265656e7472616e637947756172643a207265656e7472616e742063616c6c00600082015250565b6000611a67601f836110db565b9150611a7282611a31565b602082019050919050565b60006020820190508181036000830152611a9681611a5a565b9050919050565b7f4f776e61626c653a2063616c6c6572206973206e6f7420746865206f776e6572600082015250565b6000611ad36020836110db565b9150611ade82611a9d565b602082019050919050565b60006020820190508181036000830152611b0281611ac6565b905091905056fea2646970667358221220b737f41f90aaccc1a594b43a8a207ce705b8b70a3c5331439bb7c3728692adad64736f6c63430008140033",
  "linkReferences": {},
  "deployedLinkReferences": {}
}